{
  "_format": "hh-sol-artifact-1",
  "contractName": "$ERC1363",
  "sourceName": "contracts-exposed/token/ERC1363/ERC1363.sol",
  "abi": [
    {
      "inputs": [
        {
          "internalType": "string",
          "name": "name_",
          "type": "string"
        },
        {
          "internalType": "string",
          "name": "symbol_",
          "type": "string"
        }
      ],
      "stateMutability": "payable",
      "type": "constructor"
    },
    {
      "inputs": [
        {
          "internalType": "address",
          "name": "receiver",
          "type": "address"
        }
      ],
      "name": "ERC1363EOAReceiver",
      "type": "error"
    },
    {
      "inputs": [
        {
          "internalType": "address",
          "name": "spender",
          "type": "address"
        }
      ],
      "name": "ERC1363EOASpender",
      "type": "error"
    },
    {
      "inputs": [
        {
          "internalType": "address",
          "name": "receiver",
          "type": "address"
        }
      ],
      "name": "ERC1363InvalidReceiver",
      "type": "error"
    },
    {
      "inputs": [
        {
          "internalType": "address",
          "name": "spender",
          "type": "address"
        }
      ],
      "name": "ERC1363InvalidSpender",
      "type": "error"
    },
    {
      "inputs": [
        {
          "internalType": "address",
          "name": "spender",
          "type": "address"
        },
        {
          "internalType": "uint256",
          "name": "allowance",
          "type": "uint256"
        },
        {
          "internalType": "uint256",
          "name": "needed",
          "type": "uint256"
        }
      ],
      "name": "ERC20InsufficientAllowance",
      "type": "error"
    },
    {
      "inputs": [
        {
          "internalType": "address",
          "name": "sender",
          "type": "address"
        },
        {
          "internalType": "uint256",
          "name": "balance",
          "type": "uint256"
        },
        {
          "internalType": "uint256",
          "name": "needed",
          "type": "uint256"
        }
      ],
      "name": "ERC20InsufficientBalance",
      "type": "error"
    },
    {
      "inputs": [
        {
          "internalType": "address",
          "name": "approver",
          "type": "address"
        }
      ],
      "name": "ERC20InvalidApprover",
      "type": "error"
    },
    {
      "inputs": [
        {
          "internalType": "address",
          "name": "receiver",
          "type": "address"
        }
      ],
      "name": "ERC20InvalidReceiver",
      "type": "error"
    },
    {
      "inputs": [
        {
          "internalType": "address",
          "name": "sender",
          "type": "address"
        }
      ],
      "name": "ERC20InvalidSender",
      "type": "error"
    },
    {
      "inputs": [
        {
          "internalType": "address",
          "name": "spender",
          "type": "address"
        }
      ],
      "name": "ERC20InvalidSpender",
      "type": "error"
    },
    {
      "anonymous": false,
      "inputs": [
        {
          "indexed": true,
          "internalType": "address",
          "name": "owner",
          "type": "address"
        },
        {
          "indexed": true,
          "internalType": "address",
          "name": "spender",
          "type": "address"
        },
        {
          "indexed": false,
          "internalType": "uint256",
          "name": "value",
          "type": "uint256"
        }
      ],
      "name": "Approval",
      "type": "event"
    },
    {
      "anonymous": false,
      "inputs": [
        {
          "indexed": true,
          "internalType": "address",
          "name": "from",
          "type": "address"
        },
        {
          "indexed": true,
          "internalType": "address",
          "name": "to",
          "type": "address"
        },
        {
          "indexed": false,
          "internalType": "uint256",
          "name": "value",
          "type": "uint256"
        }
      ],
      "name": "Transfer",
      "type": "event"
    },
    {
      "inputs": [
        {
          "internalType": "address",
          "name": "owner",
          "type": "address"
        },
        {
          "internalType": "address",
          "name": "spender",
          "type": "address"
        },
        {
          "internalType": "uint256",
          "name": "value",
          "type": "uint256"
        },
        {
          "internalType": "bool",
          "name": "emitEvent",
          "type": "bool"
        }
      ],
      "name": "$_approve",
      "outputs": [],
      "stateMutability": "nonpayable",
      "type": "function"
    },
    {
      "inputs": [
        {
          "internalType": "address",
          "name": "owner",
          "type": "address"
        },
        {
          "internalType": "address",
          "name": "spender",
          "type": "address"
        },
        {
          "internalType": "uint256",
          "name": "value",
          "type": "uint256"
        }
      ],
      "name": "$_approve",
      "outputs": [],
      "stateMutability": "nonpayable",
      "type": "function"
    },
    {
      "inputs": [
        {
          "internalType": "address",
          "name": "account",
          "type": "address"
        },
        {
          "internalType": "uint256",
          "name": "value",
          "type": "uint256"
        }
      ],
      "name": "$_burn",
      "outputs": [],
      "stateMutability": "nonpayable",
      "type": "function"
    },
    {
      "inputs": [
        {
          "internalType": "address",
          "name": "account",
          "type": "address"
        },
        {
          "internalType": "uint256",
          "name": "value",
          "type": "uint256"
        }
      ],
      "name": "$_mint",
      "outputs": [],
      "stateMutability": "nonpayable",
      "type": "function"
    },
    {
      "inputs": [],
      "name": "$_msgData",
      "outputs": [
        {
          "internalType": "bytes",
          "name": "ret0",
          "type": "bytes"
        }
      ],
      "stateMutability": "view",
      "type": "function"
    },
    {
      "inputs": [],
      "name": "$_msgSender",
      "outputs": [
        {
          "internalType": "address",
          "name": "ret0",
          "type": "address"
        }
      ],
      "stateMutability": "view",
      "type": "function"
    },
    {
      "inputs": [
        {
          "internalType": "address",
          "name": "owner",
          "type": "address"
        },
        {
          "internalType": "address",
          "name": "spender",
          "type": "address"
        },
        {
          "internalType": "uint256",
          "name": "value",
          "type": "uint256"
        }
      ],
      "name": "$_spendAllowance",
      "outputs": [],
      "stateMutability": "nonpayable",
      "type": "function"
    },
    {
      "inputs": [
        {
          "internalType": "address",
          "name": "from",
          "type": "address"
        },
        {
          "internalType": "address",
          "name": "to",
          "type": "address"
        },
        {
          "internalType": "uint256",
          "name": "value",
          "type": "uint256"
        }
      ],
      "name": "$_transfer",
      "outputs": [],
      "stateMutability": "nonpayable",
      "type": "function"
    },
    {
      "inputs": [
        {
          "internalType": "address",
          "name": "from",
          "type": "address"
        },
        {
          "internalType": "address",
          "name": "to",
          "type": "address"
        },
        {
          "internalType": "uint256",
          "name": "value",
          "type": "uint256"
        }
      ],
      "name": "$_update",
      "outputs": [],
      "stateMutability": "nonpayable",
      "type": "function"
    },
    {
      "inputs": [],
      "name": "__hh_exposed_bytecode_marker",
      "outputs": [
        {
          "internalType": "bytes32",
          "name": "",
          "type": "bytes32"
        }
      ],
      "stateMutability": "view",
      "type": "function"
    },
    {
      "inputs": [
        {
          "internalType": "address",
          "name": "owner",
          "type": "address"
        },
        {
          "internalType": "address",
          "name": "spender",
          "type": "address"
        }
      ],
      "name": "allowance",
      "outputs": [
        {
          "internalType": "uint256",
          "name": "",
          "type": "uint256"
        }
      ],
      "stateMutability": "view",
      "type": "function"
    },
    {
      "inputs": [
        {
          "internalType": "address",
          "name": "spender",
          "type": "address"
        },
        {
          "internalType": "uint256",
          "name": "value",
          "type": "uint256"
        }
      ],
      "name": "approve",
      "outputs": [
        {
          "internalType": "bool",
          "name": "",
          "type": "bool"
        }
      ],
      "stateMutability": "nonpayable",
      "type": "function"
    },
    {
      "inputs": [
        {
          "internalType": "address",
          "name": "spender",
          "type": "address"
        },
        {
          "internalType": "uint256",
          "name": "value",
          "type": "uint256"
        }
      ],
      "name": "approveAndCall",
      "outputs": [
        {
          "internalType": "bool",
          "name": "",
          "type": "bool"
        }
      ],
      "stateMutability": "nonpayable",
      "type": "function"
    },
    {
      "inputs": [
        {
          "internalType": "address",
          "name": "spender",
          "type": "address"
        },
        {
          "internalType": "uint256",
          "name": "value",
          "type": "uint256"
        },
        {
          "internalType": "bytes",
          "name": "data",
          "type": "bytes"
        }
      ],
      "name": "approveAndCall",
      "outputs": [
        {
          "internalType": "bool",
          "name": "",
          "type": "bool"
        }
      ],
      "stateMutability": "nonpayable",
      "type": "function"
    },
    {
      "inputs": [
        {
          "internalType": "address",
          "name": "account",
          "type": "address"
        }
      ],
      "name": "balanceOf",
      "outputs": [
        {
          "internalType": "uint256",
          "name": "",
          "type": "uint256"
        }
      ],
      "stateMutability": "view",
      "type": "function"
    },
    {
      "inputs": [],
      "name": "decimals",
      "outputs": [
        {
          "internalType": "uint8",
          "name": "",
          "type": "uint8"
        }
      ],
      "stateMutability": "view",
      "type": "function"
    },
    {
      "inputs": [],
      "name": "name",
      "outputs": [
        {
          "internalType": "string",
          "name": "",
          "type": "string"
        }
      ],
      "stateMutability": "view",
      "type": "function"
    },
    {
      "inputs": [
        {
          "internalType": "bytes4",
          "name": "interfaceId",
          "type": "bytes4"
        }
      ],
      "name": "supportsInterface",
      "outputs": [
        {
          "internalType": "bool",
          "name": "",
          "type": "bool"
        }
      ],
      "stateMutability": "view",
      "type": "function"
    },
    {
      "inputs": [],
      "name": "symbol",
      "outputs": [
        {
          "internalType": "string",
          "name": "",
          "type": "string"
        }
      ],
      "stateMutability": "view",
      "type": "function"
    },
    {
      "inputs": [],
      "name": "totalSupply",
      "outputs": [
        {
          "internalType": "uint256",
          "name": "",
          "type": "uint256"
        }
      ],
      "stateMutability": "view",
      "type": "function"
    },
    {
      "inputs": [
        {
          "internalType": "address",
          "name": "to",
          "type": "address"
        },
        {
          "internalType": "uint256",
          "name": "value",
          "type": "uint256"
        }
      ],
      "name": "transfer",
      "outputs": [
        {
          "internalType": "bool",
          "name": "",
          "type": "bool"
        }
      ],
      "stateMutability": "nonpayable",
      "type": "function"
    },
    {
      "inputs": [
        {
          "internalType": "address",
          "name": "to",
          "type": "address"
        },
        {
          "internalType": "uint256",
          "name": "value",
          "type": "uint256"
        }
      ],
      "name": "transferAndCall",
      "outputs": [
        {
          "internalType": "bool",
          "name": "",
          "type": "bool"
        }
      ],
      "stateMutability": "nonpayable",
      "type": "function"
    },
    {
      "inputs": [
        {
          "internalType": "address",
          "name": "to",
          "type": "address"
        },
        {
          "internalType": "uint256",
          "name": "value",
          "type": "uint256"
        },
        {
          "internalType": "bytes",
          "name": "data",
          "type": "bytes"
        }
      ],
      "name": "transferAndCall",
      "outputs": [
        {
          "internalType": "bool",
          "name": "",
          "type": "bool"
        }
      ],
      "stateMutability": "nonpayable",
      "type": "function"
    },
    {
      "inputs": [
        {
          "internalType": "address",
          "name": "from",
          "type": "address"
        },
        {
          "internalType": "address",
          "name": "to",
          "type": "address"
        },
        {
          "internalType": "uint256",
          "name": "value",
          "type": "uint256"
        }
      ],
      "name": "transferFrom",
      "outputs": [
        {
          "internalType": "bool",
          "name": "",
          "type": "bool"
        }
      ],
      "stateMutability": "nonpayable",
      "type": "function"
    },
    {
      "inputs": [
        {
          "internalType": "address",
          "name": "from",
          "type": "address"
        },
        {
          "internalType": "address",
          "name": "to",
          "type": "address"
        },
        {
          "internalType": "uint256",
          "name": "value",
          "type": "uint256"
        },
        {
          "internalType": "bytes",
          "name": "data",
          "type": "bytes"
        }
      ],
      "name": "transferFromAndCall",
      "outputs": [
        {
          "internalType": "bool",
          "name": "",
          "type": "bool"
        }
      ],
      "stateMutability": "nonpayable",
      "type": "function"
    },
    {
      "inputs": [
        {
          "internalType": "address",
          "name": "from",
          "type": "address"
        },
        {
          "internalType": "address",
          "name": "to",
          "type": "address"
        },
        {
          "internalType": "uint256",
          "name": "value",
          "type": "uint256"
        }
      ],
      "name": "transferFromAndCall",
      "outputs": [
        {
          "internalType": "bool",
          "name": "",
          "type": "bool"
        }
      ],
      "stateMutability": "nonpayable",
      "type": "function"
    },
    {
      "stateMutability": "payable",
      "type": "receive"
    }
  ],
  "bytecode": "0x6080604052604051620013db380380620013db83398101604081905262000026916200010e565b8181600362000036838262000200565b50600462000045828262000200565b5050505050620002c8565b634e487b7160e01b5f52604160045260245ffd5b5f82601f83011262000074575f80fd5b81516001600160401b038082111562000091576200009162000050565b604051601f8301601f19908116603f01168101908282118183101715620000bc57620000bc62000050565b81604052838152602092508683858801011115620000d8575f80fd5b5f91505b83821015620000fb5785820183015181830184015290820190620000dc565b5f93810190920192909252949350505050565b5f806040838503121562000120575f80fd5b82516001600160401b038082111562000137575f80fd5b620001458683870162000064565b935060208501519150808211156200015b575f80fd5b506200016a8582860162000064565b9150509250929050565b600181811c908216806200018957607f821691505b602082108103620001a857634e487b7160e01b5f52602260045260245ffd5b50919050565b601f821115620001fb575f81815260208120601f850160051c81016020861015620001d65750805b601f850160051c820191505b81811015620001f757828155600101620001e2565b5050505b505050565b81516001600160401b038111156200021c576200021c62000050565b62000234816200022d845462000174565b84620001ae565b602080601f8311600181146200026a575f8415620002525750858301515b5f19600386901b1c1916600185901b178555620001f7565b5f85815260208120601f198616915b828110156200029a5788860151825594840194600190910190840162000279565b5085821015620002b857878501515f19600388901b60f8161c191681555b5050505050600190811b01905550565b61110580620002d65f395ff3fe60806040526004361061017e575f3560e01c80636855a178116100cd578063c1d34b8911610087578063d8fbe99411610062578063d8fbe99414610447578063dd62ed3e14610466578063e047838d146104aa578063efb43b07146104c9575f80fd5b8063c1d34b89146103ea578063cae9ca5114610409578063cc461d6214610428575f80fd5b80636855a1781461032657806370a0823114610345578063861e3d3d1461037957806395d89b4114610398578063a9059cbb146103ac578063b2331d7d146103cb575f80fd5b80632904df291161013857806332bc74aa1161011357806332bc74aa146102ad57806332cadf3c146102ce578063342db739146102e25780634000aea014610307575f80fd5b80632904df2914610259578063313ce567146102735780633177029f1461028e575f80fd5b806301ffc9a71461018957806306fdde03146101bd578063095ea7b3146101de5780631296ee62146101fd57806318160ddd1461021c57806323b872dd1461023a575f80fd5b3661018557005b5f80fd5b348015610194575f80fd5b506101a86101a3366004610d18565b6104e8565b60405190151581526020015b60405180910390f35b3480156101c8575f80fd5b506101d161051e565b6040516101b49190610d76565b3480156101e9575f80fd5b506101a86101f8366004610da3565b6105ae565b348015610208575f80fd5b506101a8610217366004610da3565b6105c5565b348015610227575f80fd5b506002545b6040519081526020016101b4565b348015610245575f80fd5b506101a8610254366004610dcb565b6105e6565b348015610264575f80fd5b506040513381526020016101b4565b34801561027e575f80fd5b50604051601281526020016101b4565b348015610299575f80fd5b506101a86102a8366004610da3565b610609565b3480156102b8575f80fd5b506102cc6102c7366004610e04565b610623565b005b3480156102d9575f80fd5b506101d1610635565b3480156102ed575f80fd5b5061022c6e1a185c991a185d0b595e1c1bdcd959608a1b81565b348015610312575f80fd5b506101a8610321366004610ef1565b610672565b348015610331575f80fd5b506102cc610340366004610dcb565b61068a565b348015610350575f80fd5b5061022c61035f366004610f44565b6001600160a01b03165f9081526020819052604090205490565b348015610384575f80fd5b506102cc610393366004610dcb565b61069a565b3480156103a3575f80fd5b506101d16106a5565b3480156103b7575f80fd5b506101a86103c6366004610da3565b6106b4565b3480156103d6575f80fd5b506102cc6103e5366004610dcb565b6106c1565b3480156103f5575f80fd5b506101a8610404366004610f5d565b6106cc565b348015610414575f80fd5b506101a8610423366004610ef1565b6106e5565b348015610433575f80fd5b506102cc610442366004610da3565b6106fc565b348015610452575f80fd5b506101a8610461366004610dcb565b61070a565b348015610471575f80fd5b5061022c610480366004610fc1565b6001600160a01b039182165f90815260016020908152604080832093909416825291909152205490565b3480156104b5575f80fd5b506102cc6104c4366004610da3565b61072d565b3480156104d4575f80fd5b506102cc6104e3366004610dcb565b610737565b5f6001600160e01b0319821663b0202a1160e01b148061051857506301ffc9a760e01b6001600160e01b03198316145b92915050565b60606003805461052d90610ff2565b80601f016020809104026020016040519081016040528092919081815260200182805461055990610ff2565b80156105a45780601f1061057b576101008083540402835291602001916105a4565b820191905f5260205f20905b81548152906001019060200180831161058757829003601f168201915b5050505050905090565b5f336105bb818585610742565b5060019392505050565b5f6105df838360405180602001604052805f815250610672565b9392505050565b5f336105f385828561074f565b6105fe8585856107c9565b506001949350505050565b5f6105df838360405180602001604052805f8152506106e5565b61062f8484848461081b565b50505050565b60605f368080601f0160208091040260200160405190810160405280939291908181526020018383808284375f9201919091525092949350505050565b5f61067d84846106b4565b506105bb338585856108ed565b610695838383610a38565b505050565b610695838383610742565b60606004805461052d90610ff2565b5f336105bb8185856107c9565b61069583838361074f565b5f6106d88585856105e6565b506105fe858585856108ed565b5f6106f084846105ae565b506105bb848484610b5e565b6107068282610c98565b5050565b5f61072584848460405180602001604052805f8152506106cc565b949350505050565b6107068282610ccc565b6106958383836107c9565b610695838383600161081b565b6001600160a01b038381165f908152600160209081526040808320938616835292905220545f19811461062f57818110156107bb57604051637dc7a0d960e11b81526001600160a01b038416600482015260248101829052604481018390526064015b60405180910390fd5b61062f84848484035f61081b565b6001600160a01b0383166107f257604051634b637e8f60e11b81525f60048201526024016107b2565b6001600160a01b03821661068a5760405163ec442f0560e01b81525f60048201526024016107b2565b6001600160a01b0384166108445760405163e602df0560e01b81525f60048201526024016107b2565b6001600160a01b03831661086d57604051634a1406b160e11b81525f60048201526024016107b2565b6001600160a01b038085165f908152600160209081526040808320938716835292905220829055801561062f57826001600160a01b0316846001600160a01b03167f8c5be1e5ebec7d5bd14f71427d1e84f3dd0314c0f7b2291e5b200ac8c7c3b925846040516108df91815260200190565b60405180910390a350505050565b826001600160a01b03163b5f036109225760405163052d06bd60e21b81526001600160a01b03841660048201526024016107b2565b604051632229f29760e21b81526001600160a01b038416906388a7ca5c9061095490339088908790879060040161102a565b6020604051808303815f875af192505050801561098e575060408051601f3d908101601f1916820190925261098b91810190611066565b60015b6109f5573d8080156109bb576040519150601f19603f3d011682016040523d82523d5f602084013e6109c0565b606091505b5080515f036109ed576040516322a5b36760e21b81526001600160a01b03851660048201526024016107b2565b805181602001fd5b6001600160e01b03198116632229f29760e21b14610a31576040516322a5b36760e21b81526001600160a01b03851660048201526024016107b2565b5050505050565b6001600160a01b038316610a62578060025f828254610a579190611081565b90915550610ad29050565b6001600160a01b0383165f9081526020819052604090205481811015610ab45760405163391434e360e21b81526001600160a01b038516600482015260248101829052604481018390526064016107b2565b6001600160a01b0384165f9081526020819052604090209082900390555b6001600160a01b038216610aee57600280548290039055610b0c565b6001600160a01b0382165f9081526020819052604090208054820190555b816001600160a01b0316836001600160a01b03167fddf252ad1be2c89b69c2b068fc378daa952ba7f163c4a11628f55a4df523b3ef83604051610b5191815260200190565b60405180910390a3505050565b826001600160a01b03163b5f03610b93576040516301de054360e21b81526001600160a01b03841660048201526024016107b2565b6040516307b04a2d60e41b81526001600160a01b03841690637b04a2d090610bc3903390869086906004016110a0565b6020604051808303815f875af1925050508015610bfd575060408051601f3d908101601f19168201909252610bfa91810190611066565b60015b610c5c573d808015610c2a576040519150601f19603f3d011682016040523d82523d5f602084013e610c2f565b606091505b5080515f036109ed5760405163deb6d3ed60e01b81526001600160a01b03851660048201526024016107b2565b6001600160e01b031981166307b04a2d60e41b1461062f5760405163deb6d3ed60e01b81526001600160a01b03851660048201526024016107b2565b6001600160a01b038216610cc15760405163ec442f0560e01b81525f60048201526024016107b2565b6107065f8383610a38565b6001600160a01b038216610cf557604051634b637e8f60e11b81525f60048201526024016107b2565b610706825f83610a38565b6001600160e01b031981168114610d15575f80fd5b50565b5f60208284031215610d28575f80fd5b81356105df81610d00565b5f81518084525f5b81811015610d5757602081850181015186830182015201610d3b565b505f602082860101526020601f19601f83011685010191505092915050565b602081525f6105df6020830184610d33565b80356001600160a01b0381168114610d9e575f80fd5b919050565b5f8060408385031215610db4575f80fd5b610dbd83610d88565b946020939093013593505050565b5f805f60608486031215610ddd575f80fd5b610de684610d88565b9250610df460208501610d88565b9150604084013590509250925092565b5f805f8060808587031215610e17575f80fd5b610e2085610d88565b9350610e2e60208601610d88565b92506040850135915060608501358015158114610e49575f80fd5b939692955090935050565b634e487b7160e01b5f52604160045260245ffd5b5f82601f830112610e77575f80fd5b813567ffffffffffffffff80821115610e9257610e92610e54565b604051601f8301601f19908116603f01168101908282118183101715610eba57610eba610e54565b81604052838152866020858801011115610ed2575f80fd5b836020870160208301375f602085830101528094505050505092915050565b5f805f60608486031215610f03575f80fd5b610f0c84610d88565b925060208401359150604084013567ffffffffffffffff811115610f2e575f80fd5b610f3a86828701610e68565b9150509250925092565b5f60208284031215610f54575f80fd5b6105df82610d88565b5f805f8060808587031215610f70575f80fd5b610f7985610d88565b9350610f8760208601610d88565b925060408501359150606085013567ffffffffffffffff811115610fa9575f80fd5b610fb587828801610e68565b91505092959194509250565b5f8060408385031215610fd2575f80fd5b610fdb83610d88565b9150610fe960208401610d88565b90509250929050565b600181811c9082168061100657607f821691505b60208210810361102457634e487b7160e01b5f52602260045260245ffd5b50919050565b6001600160a01b03858116825284166020820152604081018390526080606082018190525f9061105c90830184610d33565b9695505050505050565b5f60208284031215611076575f80fd5b81516105df81610d00565b8082018082111561051857634e487b7160e01b5f52601160045260245ffd5b60018060a01b0384168152826020820152606060408201525f6110c66060830184610d33565b9594505050505056fea26469706673582212209b595a431df4314070e447b2314e6dbfd8a08c2eb527c4457d572d3fe3c91bb464736f6c63430008150033",
  "linkReferences": {},
  "deployedLinkReferences": {}
}