{
  "_format": "hh-sol-artifact-1",
  "contractName": "UniversalTokenRouter",
  "sourceName": "contracts/UniversalTokenRouter.sol",
  "abi": [
    {
      "inputs": [
        {
          "components": [
            {
              "internalType": "address",
              "name": "recipient",
              "type": "address"
            },
            {
              "internalType": "uint256",
              "name": "eip",
              "type": "uint256"
            },
            {
              "internalType": "address",
              "name": "token",
              "type": "address"
            },
            {
              "internalType": "uint256",
              "name": "id",
              "type": "uint256"
            },
            {
              "internalType": "uint256",
              "name": "amountOutMin",
              "type": "uint256"
            }
          ],
          "internalType": "struct Output[]",
          "name": "outputs",
          "type": "tuple[]"
        },
        {
          "components": [
            {
              "components": [
                {
                  "internalType": "bytes32",
                  "name": "mode",
                  "type": "bytes32"
                },
                {
                  "internalType": "address",
                  "name": "recipient",
                  "type": "address"
                },
                {
                  "internalType": "uint256",
                  "name": "eip",
                  "type": "uint256"
                },
                {
                  "internalType": "address",
                  "name": "token",
                  "type": "address"
                },
                {
                  "internalType": "uint256",
                  "name": "id",
                  "type": "uint256"
                },
                {
                  "internalType": "uint256",
                  "name": "amountInMax",
                  "type": "uint256"
                },
                {
                  "internalType": "uint256",
                  "name": "amountSource",
                  "type": "uint256"
                }
              ],
              "internalType": "struct Input[]",
              "name": "inputs",
              "type": "tuple[]"
            },
            {
              "internalType": "uint256",
              "name": "flags",
              "type": "uint256"
            },
            {
              "internalType": "address",
              "name": "code",
              "type": "address"
            },
            {
              "internalType": "bytes",
              "name": "data",
              "type": "bytes"
            }
          ],
          "internalType": "struct Action[]",
          "name": "actions",
          "type": "tuple[]"
        }
      ],
      "name": "exec",
      "outputs": [],
      "stateMutability": "payable",
      "type": "function"
    },
    {
      "inputs": [
        {
          "internalType": "address",
          "name": "sender",
          "type": "address"
        },
        {
          "internalType": "address",
          "name": "recipient",
          "type": "address"
        },
        {
          "internalType": "uint256",
          "name": "eip",
          "type": "uint256"
        },
        {
          "internalType": "address",
          "name": "token",
          "type": "address"
        },
        {
          "internalType": "uint256",
          "name": "id",
          "type": "uint256"
        },
        {
          "internalType": "uint256",
          "name": "amount",
          "type": "uint256"
        }
      ],
      "name": "pay",
      "outputs": [],
      "stateMutability": "nonpayable",
      "type": "function"
    },
    {
      "stateMutability": "payable",
      "type": "receive"
    }
  ],
  "bytecode": "0x608060405234801561001057600080fd5b50611d83806100206000396000f3fe60806040526004361061002d5760003560e01c806303886f3c1461003957806392962fcb1461005b57600080fd5b3661003457005b600080fd5b34801561004557600080fd5b50610059610054366004611790565b61006e565b005b610059610069366004611b84565b6101b0565b6040517fffffffffffffffffffffffffffffffffffffffff000000000000000000000000606088811b8216602084015287811b821660348401526048830187905285901b166068820152607c8101839052600090609c0160405160208183030381529060405280519060200120905081600080838152602001908152602001600020541015610184576040517f08c379a000000000000000000000000000000000000000000000000000000000815260206004820152602c60248201527f556e6976657273616c546f6b656e526f757465723a20494e535546464943494560448201527f4e545f414c4c4f57414e4345000000000000000000000000000000000000000060648201526084015b60405180910390fd5b6000818152602081905260409020805483900390556101a7878787878787610aab565b50505050505050565b60005b825181101561027e5760008382815181106101d0576101d0611c90565b6020026020010151905060006101f88260000151836020015184604001518560600151610d50565b608083015190915081018181101561026c576040517f08c379a000000000000000000000000000000000000000000000000000000000815260206004820152601e60248201527f556e6976657273616c546f6b656e526f757465723a204f564552464c4f570000604482015260640161017b565b608090920191909152506001016101b3565b506000606060005b83518110156107745760008482815181106102a3576102a3611c90565b60200260200101519050600080600090505b82515181101561068d576000836000015182815181106102d7576102d7611c90565b6020908102919091010151805190915060007f524f5554455200000000000000000000000000000000000000000000000000007fffffffffffff0000000000000000000000000000000000000000000000000000831614610338573361033a565b305b90506000808460c0015103610354575060a083015161041d565b60018460c001510361037f5761037882856040015186606001518760800151610d50565b9050610389565b5060c08301518801515b8360a0015181111561041d576040517f08c379a000000000000000000000000000000000000000000000000000000000815260206004820152602c60248201527f556e6976657273616c546f6b656e526f757465723a204558434553534956455f60448201527f494e5055545f414d4f554e540000000000000000000000000000000000000000606482015260840161017b565b827f43414c4c5f56414c5545000000000000000000000000000000000000000000000361044f57945061068592505050565b60389290921b917f5452414e534645520000000000000000000000000000000000000000000000008390036104a15761049c82856020015186604001518760600151886080015186610aab565b610680565b60019950827f5041590000000000000000000000000000000000000000000000000000000000036105625760208481015160408087015160608089015160808a015184517fffffffffffffffffffffffffffffffffffffffff0000000000000000000000008a851b8116828a015296841b871660348201526048810194909452911b9093166068820152607c8082019390935281518082039093018352609c0181528151918301919091206000908152918290529020805482019055610680565b827f414c4c4f57000000000000000000000000000000000000000000000000000000036105f8576105c18460200151856040015186606001517fffffffffffffffffffffffffffffffffffffffffffffffffffffffffffffffff610ff8565b73ffffffffffffffffffffffffffffffffffffffff8216301461049c5761049c333086604001518760600151886080015186610aab565b6040517f08c379a000000000000000000000000000000000000000000000000000000000815260206004820152602260248201527f556e6976657273616c546f6b656e526f757465723a20494e56414c49445f4d4f60448201527f4445000000000000000000000000000000000000000000000000000000000000606482015260840161017b565b505050505b6001016102b5565b506060820151511561076a576020820151600416156106be57606082015180516106b8919086611113565b60608301525b600080836040015173ffffffffffffffffffffffffffffffffffffffff168385606001516040516106ef9190611cbf565b60006040518083038185875af1925050503d806000811461072c576040519150601f19603f3d011682016040523d82523d6000602084013e610731565b606091505b50915091508115801561074957506020840151600116155b1561075657805160208201fd5b602084015160021615610767578095505b50505b5050600101610286565b5060005b845181101561085d57600085828151811061079557610795611c90565b6020026020010151905060006107bd8260000151836020015184604001518560600151610d50565b90508160800151811015610853576040517f08c379a000000000000000000000000000000000000000000000000000000000815260206004820152603060248201527f556e6976657273616c546f6b656e526f757465723a20494e535546464943494560448201527f4e545f4f55545055545f414d4f554e5400000000000000000000000000000000606482015260840161017b565b5050600101610778565b508115610a935760005b8351811015610a9157600084828151811061088457610884611c90565b6020026020010151905060005b815151811015610a87576000826000015182815181106108b3576108b3611c90565b6020908102919091010151805190915060381b7f50415900000000000000000000000000000000000000000000000000000000008190036109fe576000826000015179ffffffffffffffffffffffffffffffffffffffffffffffffffff19167f524f5554455200000000000000000000000000000000000000000000000000001461093e5733610940565b305b60208085015160408087015160608089015160808a015193517fffffffffffffffffffffffffffffffffffffffff00000000000000000000000088841b81169782019790975294821b8616603486015260488501929092521b9092166068820152607c810191909152909150600090609c01604080517fffffffffffffffffffffffffffffffffffffffffffffffffffffffffffffffe0818403018152918152815160209283012060009081529182905281205550610a7f92505050565b807f414c4c4f5700000000000000000000000000000000000000000000000000000003610a7c57610a3e8260200151836040015184606001516000610ff8565b6000610a5830846040015185606001518660800151610d50565b90508015610a7a57610a7a303385604001518660600151876080015186610aab565b505b50505b600101610891565b5050600101610867565b505b478015610aa457610aa43382611197565b5050505050565b83601403610aec573073ffffffffffffffffffffffffffffffffffffffff871603610ae057610adb8386836112a6565b610d48565b610adb83878784611435565b8361048303610ba0576040517ff242432a00000000000000000000000000000000000000000000000000000000815273ffffffffffffffffffffffffffffffffffffffff87811660048301528681166024830152604482018490526064820183905260a06084830152600060a483015284169063f242432a9060c4015b600060405180830381600087803b158015610b8357600080fd5b505af1158015610b97573d6000803e3d6000fd5b50505050610d48565b836102d103610c0c576040517f42842e0e00000000000000000000000000000000000000000000000000000000815273ffffffffffffffffffffffffffffffffffffffff87811660048301528681166024830152604482018490528416906342842e0e90606401610b69565b83610cc05773ffffffffffffffffffffffffffffffffffffffff86163014610cb6576040517f08c379a000000000000000000000000000000000000000000000000000000000815260206004820152602860248201527f556e6976657273616c546f6b656e526f757465723a20494e56414c49445f455460448201527f485f53454e444552000000000000000000000000000000000000000000000000606482015260840161017b565b610adb8582611197565b6040517f08c379a000000000000000000000000000000000000000000000000000000000815260206004820152602160248201527f556e6976657273616c546f6b656e526f757465723a20494e56414c49445f454960448201527f5000000000000000000000000000000000000000000000000000000000000000606482015260840161017b565b505050505050565b600083601403610df2576040517f70a0823100000000000000000000000000000000000000000000000000000000815273ffffffffffffffffffffffffffffffffffffffff86811660048301528416906370a08231906024015b602060405180830381865afa158015610dc7573d6000803e3d6000fd5b505050506040513d601f19601f82011682018060405250810190610deb9190611cee565b9050610ff0565b8361048303610e54576040517efdd58e00000000000000000000000000000000000000000000000000000000815273ffffffffffffffffffffffffffffffffffffffff86811660048301526024820184905284169062fdd58e90604401610daa565b836102d103610fd1577ff2b78321daf989e73321bb72cbe2a5fab2d75ae52e3240a42772118067c318108201610ed8576040517f70a0823100000000000000000000000000000000000000000000000000000000815273ffffffffffffffffffffffffffffffffffffffff86811660048301528416906370a0823190602401610daa565b6040517f6352211e0000000000000000000000000000000000000000000000000000000081526004810183905273ffffffffffffffffffffffffffffffffffffffff841690636352211e90602401602060405180830381865afa925050508015610f7d575060408051601f3d9081017fffffffffffffffffffffffffffffffffffffffffffffffffffffffffffffffe0168201909252610f7a91810190611d07565b60015b610f8957506000610ff0565b8573ffffffffffffffffffffffffffffffffffffffff168173ffffffffffffffffffffffffffffffffffffffff1614610fc3576000610fc6565b60015b60ff16915050610ff0565b83610cc0575073ffffffffffffffffffffffffffffffffffffffff8416315b949350505050565b826014036110105761100b8285836115cc565b61110d565b82610483036110a8576040517fa22cb46500000000000000000000000000000000000000000000000000000000815273ffffffffffffffffffffffffffffffffffffffff8581166004830152821515602483015283169063a22cb465906044015b600060405180830381600087803b15801561108b57600080fd5b505af115801561109f573d6000803e3d6000fd5b5050505061110d565b826102d103610cc0576040517fa22cb46500000000000000000000000000000000000000000000000000000000815273ffffffffffffffffffffffffffffffffffffffff8581166004830152821515602483015283169063a22cb46590604401611071565b50505050565b6060604051905082815260208101838101602086015b81831015611141578051835260209283019201611129565b50835183518101845294507fffffffffffffffffffffffffffffffffffffffffffffffffffffffffffffffe0810191508401835b8183101561118d578051835260209283019201611175565b5050509392505050565b6040805160008082526020820190925273ffffffffffffffffffffffffffffffffffffffff84169083906040516111ce9190611cbf565b60006040518083038185875af1925050503d806000811461120b576040519150601f19603f3d011682016040523d82523d6000602084013e611210565b606091505b50509050806112a1576040517f08c379a000000000000000000000000000000000000000000000000000000000815260206004820152603460248201527f5472616e7366657248656c7065723a3a736166655472616e736665724554483a60448201527f20455448207472616e73666572206661696c6564000000000000000000000000606482015260840161017b565b505050565b6040805173ffffffffffffffffffffffffffffffffffffffff8481166024830152604480830185905283518084039091018152606490920183526020820180517bffffffffffffffffffffffffffffffffffffffffffffffffffffffff167fa9059cbb00000000000000000000000000000000000000000000000000000000179052915160009283929087169161133d9190611cbf565b6000604051808303816000865af19150503d806000811461137a576040519150601f19603f3d011682016040523d82523d6000602084013e61137f565b606091505b50915091508180156113a95750805115806113a95750808060200190518101906113a99190611d2b565b610aa4576040517f08c379a000000000000000000000000000000000000000000000000000000000815260206004820152602d60248201527f5472616e7366657248656c7065723a3a736166655472616e736665723a20747260448201527f616e73666572206661696c656400000000000000000000000000000000000000606482015260840161017b565b6040805173ffffffffffffffffffffffffffffffffffffffff85811660248301528481166044830152606480830185905283518084039091018152608490920183526020820180517bffffffffffffffffffffffffffffffffffffffffffffffffffffffff167f23b872dd0000000000000000000000000000000000000000000000000000000017905291516000928392908816916114d49190611cbf565b6000604051808303816000865af19150503d8060008114611511576040519150601f19603f3d011682016040523d82523d6000602084013e611516565b606091505b50915091508180156115405750805115806115405750808060200190518101906115409190611d2b565b610d48576040517f08c379a000000000000000000000000000000000000000000000000000000000815260206004820152603160248201527f5472616e7366657248656c7065723a3a7472616e7366657246726f6d3a20747260448201527f616e7366657246726f6d206661696c6564000000000000000000000000000000606482015260840161017b565b6040805173ffffffffffffffffffffffffffffffffffffffff8481166024830152604480830185905283518084039091018152606490920183526020820180517bffffffffffffffffffffffffffffffffffffffffffffffffffffffff167f095ea7b30000000000000000000000000000000000000000000000000000000017905291516000928392908716916116639190611cbf565b6000604051808303816000865af19150503d80600081146116a0576040519150601f19603f3d011682016040523d82523d6000602084013e6116a5565b606091505b50915091508180156116cf5750805115806116cf5750808060200190518101906116cf9190611d2b565b610aa4576040517f08c379a000000000000000000000000000000000000000000000000000000000815260206004820152602b60248201527f5472616e7366657248656c7065723a3a73616665417070726f76653a2061707060448201527f726f7665206661696c6564000000000000000000000000000000000000000000606482015260840161017b565b73ffffffffffffffffffffffffffffffffffffffff8116811461177d57600080fd5b50565b803561178b8161175b565b919050565b60008060008060008060c087890312156117a957600080fd5b86356117b48161175b565b955060208701356117c48161175b565b94506040870135935060608701356117db8161175b565b9598949750929560808101359460a0909101359350915050565b7f4e487b7100000000000000000000000000000000000000000000000000000000600052604160045260246000fd5b6040516080810167ffffffffffffffff81118282101715611847576118476117f5565b60405290565b60405160e0810167ffffffffffffffff81118282101715611847576118476117f5565b60405160a0810167ffffffffffffffff81118282101715611847576118476117f5565b604051601f82017fffffffffffffffffffffffffffffffffffffffffffffffffffffffffffffffe016810167ffffffffffffffff811182821017156118da576118da6117f5565b604052919050565b600067ffffffffffffffff8211156118fc576118fc6117f5565b5060051b60200190565b600082601f83011261191757600080fd5b813567ffffffffffffffff811115611931576119316117f5565b61196260207fffffffffffffffffffffffffffffffffffffffffffffffffffffffffffffffe0601f84011601611893565b81815284602083860101111561197757600080fd5b816020850160208301376000918101602001919091529392505050565b600082601f8301126119a557600080fd5b6119b76119b283356118e2565b611893565b82358082526020808301929160051b850101858111156119d657600080fd5b602085015b81811015611b795767ffffffffffffffff80823511156119fa57600080fd5b8135870160807fffffffffffffffffffffffffffffffffffffffffffffffffffffffffffffffe0828b03011215611a3057600080fd5b611a38611824565b8260208301351115611a4957600080fd5b602082013582018a603f820112611a5f57600080fd5b6020810135611a706119b2826118e2565b81815260e090910282016040019060208101908d831115611a9057600080fd5b6040840193505b82841015611b205760e0848f031215611aaf57600080fd5b611ab761184d565b84358152611ac8602086013561175b565b6020850135602082015260408501356040820152611ae860608601611780565b60608201526080850135608082015260a085013560a082015260c085013560c08201528083525060208201915060e084019350611a97565b845250505060408201356020820152611b3b60608301611780565b60408201528260808301351115611b5157600080fd5b611b648a60206080850135850101611906565b606082015286525050602093840193016119db565b509095945050505050565b6000806040808486031215611b9857600080fd5b833567ffffffffffffffff80821115611bb057600080fd5b818601915086601f830112611bc457600080fd5b81356020611bd46119b2836118e2565b82815260a0928302850182019282820191908b851115611bf357600080fd5b958301955b84871015611c615780878d031215611c105760008081fd5b611c18611870565b8735611c238161175b565b8152878501358582015288880135611c3a8161175b565b818a0152606088810135908201526080808901359082015283529586019591830191611bf8565b5097505087013593505080831115611c7857600080fd5b5050611c8685828601611994565b9150509250929050565b7f4e487b7100000000000000000000000000000000000000000000000000000000600052603260045260246000fd5b6000825160005b81811015611ce05760208186018101518583015201611cc6565b506000920191825250919050565b600060208284031215611d0057600080fd5b5051919050565b600060208284031215611d1957600080fd5b8151611d248161175b565b9392505050565b600060208284031215611d3d57600080fd5b81518015158114611d2457600080fdfea26469706673582212207e91268f78ffebfc3ea678c880eeebf8c27febc649adc372b57d9c9a01ef217964736f6c63430008120033",
  "linkReferences": {},
  "deployedLinkReferences": {}
}