{
  "_format": "hh-sol-artifact-1",
  "contractName": "UniversalTokenRouter",
  "sourceName": "contracts/UniversalTokenRouter.sol",
  "abi": [
    {
      "inputs": [
        {
          "internalType": "bytes32",
          "name": "blockedSelectors",
          "type": "bytes32"
        }
      ],
      "stateMutability": "nonpayable",
      "type": "constructor"
    },
    {
      "inputs": [
        {
          "internalType": "bytes",
          "name": "payment",
          "type": "bytes"
        },
        {
          "internalType": "uint256",
          "name": "amount",
          "type": "uint256"
        }
      ],
      "name": "discard",
      "outputs": [],
      "stateMutability": "nonpayable",
      "type": "function"
    },
    {
      "inputs": [
        {
          "components": [
            {
              "internalType": "address",
              "name": "recipient",
              "type": "address"
            },
            {
              "internalType": "uint256",
              "name": "eip",
              "type": "uint256"
            },
            {
              "internalType": "address",
              "name": "token",
              "type": "address"
            },
            {
              "internalType": "uint256",
              "name": "id",
              "type": "uint256"
            },
            {
              "internalType": "uint256",
              "name": "amountOutMin",
              "type": "uint256"
            }
          ],
          "internalType": "struct Output[]",
          "name": "outputs",
          "type": "tuple[]"
        },
        {
          "components": [
            {
              "components": [
                {
                  "internalType": "uint256",
                  "name": "mode",
                  "type": "uint256"
                },
                {
                  "internalType": "address",
                  "name": "recipient",
                  "type": "address"
                },
                {
                  "internalType": "uint256",
                  "name": "eip",
                  "type": "uint256"
                },
                {
                  "internalType": "address",
                  "name": "token",
                  "type": "address"
                },
                {
                  "internalType": "uint256",
                  "name": "id",
                  "type": "uint256"
                },
                {
                  "internalType": "uint256",
                  "name": "amountIn",
                  "type": "uint256"
                }
              ],
              "internalType": "struct Input[]",
              "name": "inputs",
              "type": "tuple[]"
            },
            {
              "internalType": "address",
              "name": "code",
              "type": "address"
            },
            {
              "internalType": "bytes",
              "name": "data",
              "type": "bytes"
            }
          ],
          "internalType": "struct Action[]",
          "name": "actions",
          "type": "tuple[]"
        }
      ],
      "name": "exec",
      "outputs": [],
      "stateMutability": "payable",
      "type": "function"
    },
    {
      "inputs": [
        {
          "internalType": "bytes",
          "name": "payment",
          "type": "bytes"
        },
        {
          "internalType": "uint256",
          "name": "amount",
          "type": "uint256"
        }
      ],
      "name": "pay",
      "outputs": [],
      "stateMutability": "nonpayable",
      "type": "function"
    },
    {
      "inputs": [
        {
          "internalType": "bytes4",
          "name": "interfaceId",
          "type": "bytes4"
        }
      ],
      "name": "supportsInterface",
      "outputs": [
        {
          "internalType": "bool",
          "name": "",
          "type": "bool"
        }
      ],
      "stateMutability": "view",
      "type": "function"
    },
    {
      "stateMutability": "payable",
      "type": "receive"
    }
  ],
  "bytecode": "0x60a060405234801561001057600080fd5b506040516118e13803806118e183398101604081905261002f91610043565b60201c63c1d34b8960e01b1760805261005c565b60006020828403121561005557600080fd5b5051919050565b60805161186a6100776000396000610e70015261186a6000f3fe6080604052600436106100435760003560e01c806301ffc9a71461004f578063715ef7f914610083578063c175dd37146100a5578063f02c9eab146100c557600080fd5b3661004a57005b600080fd5b34801561005b57600080fd5b5061006f61006a3660046111fc565b6100d8565b604051901515815260200160405180910390f35b34801561008f57600080fd5b506100a361009e3660046113b9565b610171565b005b3480156100b157600080fd5b506100a36100c03660046113b9565b6101b8565b6100a36100d336600461163a565b61027f565b60007fffffffff0000000000000000000000000000000000000000000000000000000082167f4007b46500000000000000000000000000000000000000000000000000000000148061016b57507f01ffc9a7000000000000000000000000000000000000000000000000000000007fffffffff000000000000000000000000000000000000000000000000000000008316145b92915050565b61017b82826101b8565b6000806000806000868060200190518101906101979190611746565b945094509450945094506101af85858585858b610914565b50505050505050565b8151602080840191909120600081815291829052604090912054821115610266576040517f08c379a000000000000000000000000000000000000000000000000000000000815260206004820152602a60248201527f556e6976657273616c546f6b656e526f757465723a20494e535546464943494560448201527f4e545f5041594d454e540000000000000000000000000000000000000000000060648201526084015b60405180910390fd5b6000908152602081905260409020805491909103905550565b60005b825181101561036057600083828151811061029f5761029f6117a7565b6020026020010151905060006102b482610add565b608083015190915081018181101561034e576040517f08c379a000000000000000000000000000000000000000000000000000000000815260206004820152602d60248201527f556e6976657273616c546f6b656e526f757465723a204f55545055545f42414c60448201527f414e43455f4f564552464c4f5700000000000000000000000000000000000000606482015260840161025d565b60809092019190915250600101610282565b503360005b8251811015610826576000838281518110610382576103826117a7565b60200260200101519050600080600090505b825151811015610555576000836000015182815181106103b6576103b66117a7565b60200260200101519050600081600001519050600281036103dd578160a00151935061054b565b8061049457600087836020015184604001518560600151866080015160405160200161044895949392919073ffffffffffffffffffffffffffffffffffffffff9586168152938516602085015260408401929092529092166060820152608081019190915260a00190565b604080517fffffffffffffffffffffffffffffffffffffffffffffffffffffffffffffffe0818403018152918152815160209283012060a086015160009182529281905220555061054b565b600181036104c3576104be8783602001518460400151856060015186608001518760a00151610914565b61054b565b6040517f08c379a000000000000000000000000000000000000000000000000000000000815260206004820152602260248201527f556e6976657273616c546f6b656e526f757465723a20494e56414c49445f4d4f60448201527f4445000000000000000000000000000000000000000000000000000000000000606482015260840161025d565b5050600101610394565b50602082015173ffffffffffffffffffffffffffffffffffffffff1615158061058357506000826040015151115b8061058e5750600081115b15610747576004826040015151106106bf576106bf601883604001516003815181106105bc576105bc6117a7565b0160200151604085015180517fff0000000000000000000000000000000000000000000000000000000000000090921690921c916010916002908110610604576106046117a7565b0160200151604086015180517fff0000000000000000000000000000000000000000000000000000000000000090921690921c91600891600190811061064c5761064c6117a7565b0160200151604087015180517fff0000000000000000000000000000000000000000000000000000000000000090921690921c9190600090610690576106906117a7565b01602001517fff0000000000000000000000000000000000000000000000000000000000000016171717610d89565b600080836020015173ffffffffffffffffffffffffffffffffffffffff168385604001516040516106f091906117d6565b60006040518083038185875af1925050503d806000811461072d576040519150601f19603f3d011682016040523d82523d6000602084013e610732565b606091505b50915091508161074457805160208201fd5b50505b60005b8251518110156108185760008360000151828151811061076c5761076c6117a7565b60200260200101519050600081600001510361080f57602081810151604080840151606080860151608087015184517fffffffffffffffffffffffffffffffffffffffff0000000000000000000000008e851b8116828a015296841b871660348201526048810194909452911b9093166068820152607c8082019390935281518082039093018352609c0181528151918301919091206000908152918290528120555b5060010161074a565b505050806001019050610365565b50478015610838576108388282610f56565b60005b845181101561090d576000858281518110610858576108586117a7565b60200260200101519050600061086d82610add565b90508160800151811015610903576040517f08c379a000000000000000000000000000000000000000000000000000000000815260206004820152603060248201527f556e6976657273616c546f6b656e526f757465723a20494e535546464943494560448201527f4e545f4f55545055545f414d4f554e5400000000000000000000000000000000606482015260840161025d565b505060010161083b565b5050505050565b8360140361092d5761092883878784611065565b610ad5565b83610483036109e1576040517ff242432a00000000000000000000000000000000000000000000000000000000815273ffffffffffffffffffffffffffffffffffffffff87811660048301528681166024830152604482018490526064820183905260a06084830152600060a483015284169063f242432a9060c4015b600060405180830381600087803b1580156109c457600080fd5b505af11580156109d8573d6000803e3d6000fd5b50505050610ad5565b836102d103610a4d576040517f42842e0e00000000000000000000000000000000000000000000000000000000815273ffffffffffffffffffffffffffffffffffffffff87811660048301528681166024830152604482018490528416906342842e0e906064016109aa565b6040517f08c379a000000000000000000000000000000000000000000000000000000000815260206004820152602160248201527f556e6976657273616c546f6b656e526f757465723a20494e56414c49445f454960448201527f5000000000000000000000000000000000000000000000000000000000000000606482015260840161025d565b505050505050565b60208101516000906014819003610b8d57604083810151845191517f70a0823100000000000000000000000000000000000000000000000000000000815273ffffffffffffffffffffffffffffffffffffffff92831660048201529116906370a08231906024015b602060405180830381865afa158015610b62573d6000803e3d6000fd5b505050506040513d601f19601f82011682018060405250810190610b869190611805565b9392505050565b8061048303610bfb576040838101518451606086015192517efdd58e00000000000000000000000000000000000000000000000000000000815273ffffffffffffffffffffffffffffffffffffffff91821660048201526024810193909352169062fdd58e90604401610b45565b806102d103610d675760608301517f0549972b314bb4225e5b334d0650d563c4e907124dcce9f2eae8c8b2d3d9d30d01610c8a57604083810151845191517f70a0823100000000000000000000000000000000000000000000000000000000815273ffffffffffffffffffffffffffffffffffffffff92831660048201529116906370a0823190602401610b45565b826040015173ffffffffffffffffffffffffffffffffffffffff16636352211e84606001516040518263ffffffff1660e01b8152600401610ccd91815260200190565b602060405180830381865afa925050508015610d24575060408051601f3d9081017fffffffffffffffffffffffffffffffffffffffffffffffffffffffffffffffe0168201909252610d219181019061181e565b60015b610d315750600092915050565b835173ffffffffffffffffffffffffffffffffffffffff828116911614610d59576000610d5c565b60015b60ff16949350505050565b80610a4d5750505173ffffffffffffffffffffffffffffffffffffffff163190565b7f23b872dd42842e0eb88d4fde62ad1b83fc673c4ff242432a2eb2c2d6d8fbe9945b8015610e6d577fffffffff0000000000000000000000000000000000000000000000000000000080821690831603610e65576040517f08c379a000000000000000000000000000000000000000000000000000000000815260206004820152602660248201527f556e6976657273616c546f6b656e526f757465723a2046554e4354494f4e5f4260448201527f4c4f434b45440000000000000000000000000000000000000000000000000000606482015260840161025d565b60201b610dab565b507f00000000000000000000000000000000000000000000000000000000000000005b8015610f52577fffffffff0000000000000000000000000000000000000000000000000000000080821690831603610f4a576040517f08c379a000000000000000000000000000000000000000000000000000000000815260206004820152602660248201527f556e6976657273616c546f6b656e526f757465723a2046554e4354494f4e5f4260448201527f4c4f434b45440000000000000000000000000000000000000000000000000000606482015260840161025d565b60201b610e90565b5050565b6040805160008082526020820190925273ffffffffffffffffffffffffffffffffffffffff8416908390604051610f8d91906117d6565b60006040518083038185875af1925050503d8060008114610fca576040519150601f19603f3d011682016040523d82523d6000602084013e610fcf565b606091505b5050905080611060576040517f08c379a000000000000000000000000000000000000000000000000000000000815260206004820152603460248201527f5472616e7366657248656c7065723a3a736166655472616e736665724554483a60448201527f20455448207472616e73666572206661696c6564000000000000000000000000606482015260840161025d565b505050565b6040805173ffffffffffffffffffffffffffffffffffffffff85811660248301528481166044830152606480830185905283518084039091018152608490920183526020820180517bffffffffffffffffffffffffffffffffffffffffffffffffffffffff167f23b872dd00000000000000000000000000000000000000000000000000000000179052915160009283929088169161110491906117d6565b6000604051808303816000865af19150503d8060008114611141576040519150601f19603f3d011682016040523d82523d6000602084013e611146565b606091505b5091509150818015611170575080511580611170575080806020019051810190611170919061183b565b610ad5576040517f08c379a000000000000000000000000000000000000000000000000000000000815260206004820152603160248201527f5472616e7366657248656c7065723a3a7472616e7366657246726f6d3a20747260448201527f616e7366657246726f6d206661696c6564000000000000000000000000000000606482015260840161025d565b60006020828403121561120e57600080fd5b81357fffffffff0000000000000000000000000000000000000000000000000000000081168114610b8657600080fd5b7f4e487b7100000000000000000000000000000000000000000000000000000000600052604160045260246000fd5b6040516060810167ffffffffffffffff811182821017156112905761129061123e565b60405290565b60405160c0810167ffffffffffffffff811182821017156112905761129061123e565b60405160a0810167ffffffffffffffff811182821017156112905761129061123e565b604051601f82017fffffffffffffffffffffffffffffffffffffffffffffffffffffffffffffffe016810167ffffffffffffffff811182821017156113235761132361123e565b604052919050565b600082601f83011261133c57600080fd5b813567ffffffffffffffff8111156113565761135661123e565b61138760207fffffffffffffffffffffffffffffffffffffffffffffffffffffffffffffffe0601f840116016112dc565b81815284602083860101111561139c57600080fd5b816020850160208301376000918101602001919091529392505050565b600080604083850312156113cc57600080fd5b823567ffffffffffffffff8111156113e357600080fd5b6113ef8582860161132b565b95602094909401359450505050565b600067ffffffffffffffff8211156114185761141861123e565b5060051b60200190565b73ffffffffffffffffffffffffffffffffffffffff8116811461144457600080fd5b50565b803561145281611422565b919050565b600082601f83011261146857600080fd5b61147a61147583356113fe565b6112dc565b82358082526020808301929160051b8501018581111561149957600080fd5b602085015b8181101561162f5767ffffffffffffffff80823511156114bd57600080fd5b8135870160607fffffffffffffffffffffffffffffffffffffffffffffffffffffffffffffffe0828b030112156114f357600080fd5b6114fb61126d565b826020830135111561150c57600080fd5b602082013582018a603f82011261152257600080fd5b6020810135611533611475826113fe565b81815260c090910282016040019060208101908d83111561155357600080fd5b6040840193505b828410156115df5760c0848f03121561157257600080fd5b61157a611296565b8435815261158b6020860135611422565b60208501356020820152604085013560408201526115ac6060860135611422565b606085013560608201526080850135608082015260a085013560a08201528083525060208201915060c08401935061155a565b8452506115f191505060408301611447565b6020820152826060830135111561160757600080fd5b61161a8a6020606085013585010161132b565b6040820152865250506020938401930161149e565b509095945050505050565b600080604080848603121561164e57600080fd5b833567ffffffffffffffff8082111561166657600080fd5b818601915086601f83011261167a57600080fd5b8135602061168a611475836113fe565b82815260a0928302850182019282820191908b8511156116a957600080fd5b958301955b848710156117175780878d0312156116c65760008081fd5b6116ce6112b9565b87356116d981611422565b81528785013585820152888801356116f081611422565b818a01526060888101359082015260808089013590820152835295860195918301916116ae565b509750508701359350508083111561172e57600080fd5b505061173c85828601611457565b9150509250929050565b600080600080600060a0868803121561175e57600080fd5b855161176981611422565b602087015190955061177a81611422565b60408701516060880151919550935061179281611422565b80925050608086015190509295509295909350565b7f4e487b7100000000000000000000000000000000000000000000000000000000600052603260045260246000fd5b6000825160005b818110156117f757602081860181015185830152016117dd565b506000920191825250919050565b60006020828403121561181757600080fd5b5051919050565b60006020828403121561183057600080fd5b8151610b8681611422565b60006020828403121561184d57600080fd5b81518015158114610b8657600080fdfea164736f6c6343000814000a",
  "linkReferences": {},
  "deployedLinkReferences": {}
}