{
  "_format": "hh-sol-artifact-1",
  "contractName": "UniversalTokenRouter",
  "sourceName": "contracts/UniversalTokenRouter.sol",
  "abi": [
    {
      "inputs": [
        {
          "internalType": "address",
          "name": "sender",
          "type": "address"
        },
        {
          "internalType": "uint256",
          "name": "eip",
          "type": "uint256"
        },
        {
          "internalType": "address",
          "name": "token",
          "type": "address"
        },
        {
          "internalType": "uint256",
          "name": "id",
          "type": "uint256"
        },
        {
          "internalType": "uint256",
          "name": "amount",
          "type": "uint256"
        }
      ],
      "name": "discard",
      "outputs": [],
      "stateMutability": "nonpayable",
      "type": "function"
    },
    {
      "inputs": [
        {
          "components": [
            {
              "internalType": "address",
              "name": "recipient",
              "type": "address"
            },
            {
              "internalType": "uint256",
              "name": "eip",
              "type": "uint256"
            },
            {
              "internalType": "address",
              "name": "token",
              "type": "address"
            },
            {
              "internalType": "uint256",
              "name": "id",
              "type": "uint256"
            },
            {
              "internalType": "uint256",
              "name": "amountOutMin",
              "type": "uint256"
            }
          ],
          "internalType": "struct Output[]",
          "name": "outputs",
          "type": "tuple[]"
        },
        {
          "components": [
            {
              "components": [
                {
                  "internalType": "uint256",
                  "name": "mode",
                  "type": "uint256"
                },
                {
                  "internalType": "address",
                  "name": "recipient",
                  "type": "address"
                },
                {
                  "internalType": "uint256",
                  "name": "eip",
                  "type": "uint256"
                },
                {
                  "internalType": "address",
                  "name": "token",
                  "type": "address"
                },
                {
                  "internalType": "uint256",
                  "name": "id",
                  "type": "uint256"
                },
                {
                  "internalType": "uint256",
                  "name": "amountIn",
                  "type": "uint256"
                }
              ],
              "internalType": "struct Input[]",
              "name": "inputs",
              "type": "tuple[]"
            },
            {
              "internalType": "address",
              "name": "code",
              "type": "address"
            },
            {
              "internalType": "bytes",
              "name": "data",
              "type": "bytes"
            }
          ],
          "internalType": "struct Action[]",
          "name": "actions",
          "type": "tuple[]"
        }
      ],
      "name": "exec",
      "outputs": [],
      "stateMutability": "payable",
      "type": "function"
    },
    {
      "inputs": [
        {
          "internalType": "address",
          "name": "sender",
          "type": "address"
        },
        {
          "internalType": "address",
          "name": "recipient",
          "type": "address"
        },
        {
          "internalType": "uint256",
          "name": "eip",
          "type": "uint256"
        },
        {
          "internalType": "address",
          "name": "token",
          "type": "address"
        },
        {
          "internalType": "uint256",
          "name": "id",
          "type": "uint256"
        },
        {
          "internalType": "uint256",
          "name": "amount",
          "type": "uint256"
        }
      ],
      "name": "pay",
      "outputs": [],
      "stateMutability": "nonpayable",
      "type": "function"
    },
    {
      "inputs": [
        {
          "internalType": "bytes4",
          "name": "interfaceId",
          "type": "bytes4"
        }
      ],
      "name": "supportsInterface",
      "outputs": [
        {
          "internalType": "bool",
          "name": "",
          "type": "bool"
        }
      ],
      "stateMutability": "view",
      "type": "function"
    },
    {
      "stateMutability": "payable",
      "type": "receive"
    }
  ],
  "bytecode": "0x608060405234801561001057600080fd5b50611787806100206000396000f3fe6080604052600436106100435760003560e01c806301ffc9a71461004f57806303886f3c146100835780631d2ec9ae146100a5578063f02c9eab146100c557600080fd5b3661004a57005b600080fd5b34801561005b57600080fd5b5061006f61006a3660046110df565b6100d8565b604051901515815260200160405180910390f35b34801561008f57600080fd5b506100a361009e366004611156565b610171565b005b3480156100b157600080fd5b506100a36100c03660046111bb565b610195565b6100a36100d336600461158f565b6101aa565b60007fffffffff0000000000000000000000000000000000000000000000000000000082167fee8a383900000000000000000000000000000000000000000000000000000000148061016b57507f01ffc9a7000000000000000000000000000000000000000000000000000000007fffffffff000000000000000000000000000000000000000000000000000000008316145b92915050565b61017f868686868686610633565b61018d868686868686610761565b505050505050565b6101a3853386868686610633565b5050505050565b60005b82518110156102905760008382815181106101ca576101ca61169b565b6020026020010151905060006101df826109fe565b608083015190915081018181101561027e576040517f08c379a000000000000000000000000000000000000000000000000000000000815260206004820152602d60248201527f556e6976657273616c546f6b656e526f757465723a204f55545055545f42414c60448201527f414e43455f4f564552464c4f570000000000000000000000000000000000000060648201526084015b60405180910390fd5b608090920191909152506001016101ad565b503360005b825181101561054c5760008382815181106102b2576102b261169b565b60200260200101519050600080600090505b8251518110156103d9576000836000015182815181106102e6576102e661169b565b602090810291909101015180519091508061039057602082810151604080850151606080870151608088015184517fffffffffffffffffffffffffffffffffffffffff0000000000000000000000008f851b8116828a015296841b871660348201526048810194909452911b9093166068820152607c8082019390935281518082039093018352609c01815281519183019190912060a085015160009182529281905220556103cf565b600181036103bf576103ba8783602001518460400151856060015186608001518760a00151610761565b6103cf565b600281036103cf578160a0015193505b50506001016102c4565b506040820151511561046d57600080836020015173ffffffffffffffffffffffffffffffffffffffff1683856040015160405161041691906116ca565b60006040518083038185875af1925050503d8060008114610453576040519150601f19603f3d011682016040523d82523d6000602084013e610458565b606091505b50915091508161046a57805160208201fd5b50505b60005b82515181101561053e576000836000015182815181106104925761049261169b565b60200260200101519050600081600001510361053557602081810151604080840151606080860151608087015184517fffffffffffffffffffffffffffffffffffffffff0000000000000000000000008e851b8116828a015296841b871660348201526048810194909452911b9093166068820152607c8082019390935281518082039093018352609c0181528151918301919091206000908152918290528120555b50600101610470565b505050806001019050610295565b5047801561055e5761055e8282610caa565b60005b84518110156101a357600085828151811061057e5761057e61169b565b602002602001015190506000610593826109fe565b90508160800151811015610629576040517f08c379a000000000000000000000000000000000000000000000000000000000815260206004820152603060248201527f556e6976657273616c546f6b656e526f757465723a20494e535546464943494560448201527f4e545f4f55545055545f414d4f554e54000000000000000000000000000000006064820152608401610275565b5050600101610561565b6040517fffffffffffffffffffffffffffffffffffffffff000000000000000000000000606088811b8216602084015287811b821660348401526048830187905285901b166068820152607c8101839052600090609c0160405160208183030381529060405280519060200120905081600080838152602001908152602001600020541015610744576040517f08c379a000000000000000000000000000000000000000000000000000000000815260206004820152602a60248201527f556e6976657273616c546f6b656e526f757465723a20494e535546464943494560448201527f4e545f5041594d454e54000000000000000000000000000000000000000000006064820152608401610275565b600090815260208190526040902080549190910390555050505050565b836014036107a2573073ffffffffffffffffffffffffffffffffffffffff87160361079657610791838683610db9565b61018d565b61079183878784610f48565b8361048303610856576040517ff242432a00000000000000000000000000000000000000000000000000000000815273ffffffffffffffffffffffffffffffffffffffff87811660048301528681166024830152604482018490526064820183905260a06084830152600060a483015284169063f242432a9060c4015b600060405180830381600087803b15801561083957600080fd5b505af115801561084d573d6000803e3d6000fd5b5050505061018d565b836102d1036108c2576040517f42842e0e00000000000000000000000000000000000000000000000000000000815273ffffffffffffffffffffffffffffffffffffffff87811660048301528681166024830152604482018490528416906342842e0e9060640161081f565b836109765773ffffffffffffffffffffffffffffffffffffffff8616301461096c576040517f08c379a000000000000000000000000000000000000000000000000000000000815260206004820152602860248201527f556e6976657273616c546f6b656e526f757465723a20494e56414c49445f455460448201527f485f53454e4445520000000000000000000000000000000000000000000000006064820152608401610275565b6107918582610caa565b6040517f08c379a000000000000000000000000000000000000000000000000000000000815260206004820152602160248201527f556e6976657273616c546f6b656e526f757465723a20494e56414c49445f454960448201527f50000000000000000000000000000000000000000000000000000000000000006064820152608401610275565b60208101516000906014819003610aae57604083810151845191517f70a0823100000000000000000000000000000000000000000000000000000000815273ffffffffffffffffffffffffffffffffffffffff92831660048201529116906370a08231906024015b602060405180830381865afa158015610a83573d6000803e3d6000fd5b505050506040513d601f19601f82011682018060405250810190610aa791906116f9565b9392505050565b8061048303610b1c576040838101518451606086015192517efdd58e00000000000000000000000000000000000000000000000000000000815273ffffffffffffffffffffffffffffffffffffffff91821660048201526024810193909352169062fdd58e90604401610a66565b806102d103610c885760608301517f0549972b314bb4225e5b334d0650d563c4e907124dcce9f2eae8c8b2d3d9d30d01610bab57604083810151845191517f70a0823100000000000000000000000000000000000000000000000000000000815273ffffffffffffffffffffffffffffffffffffffff92831660048201529116906370a0823190602401610a66565b826040015173ffffffffffffffffffffffffffffffffffffffff16636352211e84606001516040518263ffffffff1660e01b8152600401610bee91815260200190565b602060405180830381865afa925050508015610c45575060408051601f3d9081017fffffffffffffffffffffffffffffffffffffffffffffffffffffffffffffffe0168201909252610c4291810190611712565b60015b610c525750600092915050565b835173ffffffffffffffffffffffffffffffffffffffff828116911614610c7a576000610c7d565b60015b60ff16949350505050565b806109765750505173ffffffffffffffffffffffffffffffffffffffff163190565b6040805160008082526020820190925273ffffffffffffffffffffffffffffffffffffffff8416908390604051610ce191906116ca565b60006040518083038185875af1925050503d8060008114610d1e576040519150601f19603f3d011682016040523d82523d6000602084013e610d23565b606091505b5050905080610db4576040517f08c379a000000000000000000000000000000000000000000000000000000000815260206004820152603460248201527f5472616e7366657248656c7065723a3a736166655472616e736665724554483a60448201527f20455448207472616e73666572206661696c65640000000000000000000000006064820152608401610275565b505050565b6040805173ffffffffffffffffffffffffffffffffffffffff8481166024830152604480830185905283518084039091018152606490920183526020820180517bffffffffffffffffffffffffffffffffffffffffffffffffffffffff167fa9059cbb000000000000000000000000000000000000000000000000000000001790529151600092839290871691610e5091906116ca565b6000604051808303816000865af19150503d8060008114610e8d576040519150601f19603f3d011682016040523d82523d6000602084013e610e92565b606091505b5091509150818015610ebc575080511580610ebc575080806020019051810190610ebc919061172f565b6101a3576040517f08c379a000000000000000000000000000000000000000000000000000000000815260206004820152602d60248201527f5472616e7366657248656c7065723a3a736166655472616e736665723a20747260448201527f616e73666572206661696c6564000000000000000000000000000000000000006064820152608401610275565b6040805173ffffffffffffffffffffffffffffffffffffffff85811660248301528481166044830152606480830185905283518084039091018152608490920183526020820180517bffffffffffffffffffffffffffffffffffffffffffffffffffffffff167f23b872dd000000000000000000000000000000000000000000000000000000001790529151600092839290881691610fe791906116ca565b6000604051808303816000865af19150503d8060008114611024576040519150601f19603f3d011682016040523d82523d6000602084013e611029565b606091505b5091509150818015611053575080511580611053575080806020019051810190611053919061172f565b61018d576040517f08c379a000000000000000000000000000000000000000000000000000000000815260206004820152603160248201527f5472616e7366657248656c7065723a3a7472616e7366657246726f6d3a20747260448201527f616e7366657246726f6d206661696c65640000000000000000000000000000006064820152608401610275565b6000602082840312156110f157600080fd5b81357fffffffff0000000000000000000000000000000000000000000000000000000081168114610aa757600080fd5b73ffffffffffffffffffffffffffffffffffffffff8116811461114357600080fd5b50565b803561115181611121565b919050565b60008060008060008060c0878903121561116f57600080fd5b863561117a81611121565b9550602087013561118a81611121565b94506040870135935060608701356111a181611121565b9598949750929560808101359460a0909101359350915050565b600080600080600060a086880312156111d357600080fd5b85356111de81611121565b94506020860135935060408601356111f581611121565b94979396509394606081013594506080013592915050565b7f4e487b7100000000000000000000000000000000000000000000000000000000600052604160045260246000fd5b6040516060810167ffffffffffffffff8111828210171561125f5761125f61120d565b60405290565b60405160c0810167ffffffffffffffff8111828210171561125f5761125f61120d565b60405160a0810167ffffffffffffffff8111828210171561125f5761125f61120d565b604051601f82017fffffffffffffffffffffffffffffffffffffffffffffffffffffffffffffffe016810167ffffffffffffffff811182821017156112f2576112f261120d565b604052919050565b600067ffffffffffffffff8211156113145761131461120d565b5060051b60200190565b600082601f83011261132f57600080fd5b813567ffffffffffffffff8111156113495761134961120d565b61137a60207fffffffffffffffffffffffffffffffffffffffffffffffffffffffffffffffe0601f840116016112ab565b81815284602083860101111561138f57600080fd5b816020850160208301376000918101602001919091529392505050565b600082601f8301126113bd57600080fd5b6113cf6113ca83356112fa565b6112ab565b82358082526020808301929160051b850101858111156113ee57600080fd5b602085015b818110156115845767ffffffffffffffff808235111561141257600080fd5b8135870160607fffffffffffffffffffffffffffffffffffffffffffffffffffffffffffffffe0828b0301121561144857600080fd5b61145061123c565b826020830135111561146157600080fd5b602082013582018a603f82011261147757600080fd5b60208101356114886113ca826112fa565b81815260c090910282016040019060208101908d8311156114a857600080fd5b6040840193505b828410156115345760c0848f0312156114c757600080fd5b6114cf611265565b843581526114e06020860135611121565b60208501356020820152604085013560408201526115016060860135611121565b606085013560608201526080850135608082015260a085013560a08201528083525060208201915060c0840193506114af565b84525061154691505060408301611146565b6020820152826060830135111561155c57600080fd5b61156f8a6020606085013585010161131e565b604082015286525050602093840193016113f3565b509095945050505050565b60008060408084860312156115a357600080fd5b833567ffffffffffffffff808211156115bb57600080fd5b818601915086601f8301126115cf57600080fd5b813560206115df6113ca836112fa565b82815260a0928302850182019282820191908b8511156115fe57600080fd5b958301955b8487101561166c5780878d03121561161b5760008081fd5b611623611288565b873561162e81611121565b815287850135858201528888013561164581611121565b818a0152606088810135908201526080808901359082015283529586019591830191611603565b509750508701359350508083111561168357600080fd5b5050611691858286016113ac565b9150509250929050565b7f4e487b7100000000000000000000000000000000000000000000000000000000600052603260045260246000fd5b6000825160005b818110156116eb57602081860181015185830152016116d1565b506000920191825250919050565b60006020828403121561170b57600080fd5b5051919050565b60006020828403121561172457600080fd5b8151610aa781611121565b60006020828403121561174157600080fd5b81518015158114610aa757600080fdfea26469706673582212205990f8a4c484e4322547bb2502d57c76612236c61dd7b1d02d58444c42e2996a64736f6c63430008120033",
  "linkReferences": {},
  "deployedLinkReferences": {}
}