{
  "_format": "hh-sol-artifact-1",
  "contractName": "UniversalTokenRouter",
  "sourceName": "contracts/UniversalTokenRouter.sol",
  "abi": [
    {
      "inputs": [
        {
          "internalType": "address",
          "name": "sender",
          "type": "address"
        },
        {
          "internalType": "uint256",
          "name": "eip",
          "type": "uint256"
        },
        {
          "internalType": "address",
          "name": "token",
          "type": "address"
        },
        {
          "internalType": "uint256",
          "name": "id",
          "type": "uint256"
        },
        {
          "internalType": "uint256",
          "name": "amount",
          "type": "uint256"
        }
      ],
      "name": "discard",
      "outputs": [],
      "stateMutability": "nonpayable",
      "type": "function"
    },
    {
      "inputs": [
        {
          "components": [
            {
              "internalType": "address",
              "name": "recipient",
              "type": "address"
            },
            {
              "internalType": "uint256",
              "name": "eip",
              "type": "uint256"
            },
            {
              "internalType": "address",
              "name": "token",
              "type": "address"
            },
            {
              "internalType": "uint256",
              "name": "id",
              "type": "uint256"
            },
            {
              "internalType": "uint256",
              "name": "amountOutMin",
              "type": "uint256"
            }
          ],
          "internalType": "struct Output[]",
          "name": "outputs",
          "type": "tuple[]"
        },
        {
          "components": [
            {
              "components": [
                {
                  "internalType": "uint256",
                  "name": "mode",
                  "type": "uint256"
                },
                {
                  "internalType": "address",
                  "name": "recipient",
                  "type": "address"
                },
                {
                  "internalType": "uint256",
                  "name": "eip",
                  "type": "uint256"
                },
                {
                  "internalType": "address",
                  "name": "token",
                  "type": "address"
                },
                {
                  "internalType": "uint256",
                  "name": "id",
                  "type": "uint256"
                },
                {
                  "internalType": "uint256",
                  "name": "amountInMax",
                  "type": "uint256"
                },
                {
                  "internalType": "uint256",
                  "name": "amountSource",
                  "type": "uint256"
                }
              ],
              "internalType": "struct Input[]",
              "name": "inputs",
              "type": "tuple[]"
            },
            {
              "internalType": "uint256",
              "name": "flags",
              "type": "uint256"
            },
            {
              "internalType": "address",
              "name": "code",
              "type": "address"
            },
            {
              "internalType": "bytes",
              "name": "data",
              "type": "bytes"
            }
          ],
          "internalType": "struct Action[]",
          "name": "actions",
          "type": "tuple[]"
        }
      ],
      "name": "exec",
      "outputs": [],
      "stateMutability": "payable",
      "type": "function"
    },
    {
      "inputs": [
        {
          "internalType": "address",
          "name": "sender",
          "type": "address"
        },
        {
          "internalType": "address",
          "name": "recipient",
          "type": "address"
        },
        {
          "internalType": "uint256",
          "name": "eip",
          "type": "uint256"
        },
        {
          "internalType": "address",
          "name": "token",
          "type": "address"
        },
        {
          "internalType": "uint256",
          "name": "id",
          "type": "uint256"
        },
        {
          "internalType": "uint256",
          "name": "amount",
          "type": "uint256"
        }
      ],
      "name": "pay",
      "outputs": [],
      "stateMutability": "nonpayable",
      "type": "function"
    },
    {
      "stateMutability": "payable",
      "type": "receive"
    }
  ],
  "bytecode": "0x608060405234801561001057600080fd5b50611cc9806100206000396000f3fe6080604052600436106100385760003560e01c806303886f3c146100445780631d2ec9ae146100665780632a5baa781461008657600080fd5b3661003f57005b600080fd5b34801561005057600080fd5b5061006461005f36600461164f565b610099565b005b34801561007257600080fd5b506100646100813660046116b4565b6100bd565b610064610094366004611a9b565b6100d2565b6100a786868686868661084a565b6100b5868686868686610978565b505050505050565b6100cb85338686868661084a565b5050505050565b60005b82518110156101a55760008382815181106100f2576100f2611ba7565b60200260200101519050600061011a8260000151836020015184604001518560600151610c15565b6080830151909150810181811015610193576040517f08c379a000000000000000000000000000000000000000000000000000000000815260206004820152601e60248201527f556e6976657273616c546f6b656e526f757465723a204f564552464c4f57000060448201526064015b60405180910390fd5b608090920191909152506001016100d5565b50606060005b82518110156107495760008382815181106101c8576101c8611ba7565b6020026020010151905060008060005b8351518110156104f1576000846000015182815181106101fa576101fa611ba7565b602090810291909101015180519091506000600a820460011461021d573361021f565b305b90506000808460c0015103610239575060a0830151610302565b60018460c00151036102645761025d82856040015186606001518760800151610c15565b905061026e565b5060c08301518901515b8360a00151811115610302576040517f08c379a000000000000000000000000000000000000000000000000000000000815260206004820152602c60248201527f556e6976657273616c546f6b656e526f757465723a204558434553534956455f60448201527f494e5055545f414d4f554e540000000000000000000000000000000000000000606482015260840161018a565b600383036103155795506104e992505050565b600a83069250600183036103465761034182856020015186604001518760600151886080015186610978565b6104e4565b60019550826103e55760208481015160408087015160608089015160808a015184517fffffffffffffffffffffffffffffffffffffffff0000000000000000000000008a851b8116828a015296841b871660348201526048810194909452911b9093166068820152607c8082019390935281518082039093018352609c01815281519183019190912060009081529182905290208054820190556104e4565b6002830361045c576104258460200151856040015186606001517fffffffffffffffffffffffffffffffffffffffffffffffffffffffffffffffff610ebd565b73ffffffffffffffffffffffffffffffffffffffff8216301461034157610341823086604001518760600151886080015186610978565b6040517f08c379a000000000000000000000000000000000000000000000000000000000815260206004820152602260248201527f556e6976657273616c546f6b656e526f757465723a20494e56414c49445f4d4f60448201527f4445000000000000000000000000000000000000000000000000000000000000606482015260840161018a565b505050505b6001016101d8565b50606083015151156105ce57602083015160041615610522576060830151805161051c919087610fd2565b60608401525b600080846040015173ffffffffffffffffffffffffffffffffffffffff168486606001516040516105539190611c05565b60006040518083038185875af1925050503d8060008114610590576040519150601f19603f3d011682016040523d82523d6000602084013e610595565b606091505b5091509150811580156105ad57506020850151600116155b156105ba57805160208201fd5b6020850151600216156105cb578096505b50505b806105db57505050610741565b60005b83515181101561073c5760008460000151828151811061060057610600611ba7565b602002602001015190506000600a82600001518161062057610620611bd6565b069050806106d3578151600090600a900460011461063e5733610640565b305b60208481015160408087015160608089015160808a0151845197831b7fffffffffffffffffffffffffffffffffffffffff0000000000000000000000009081168989015295831b861660348901526048880193909352901b9092166068850152607c8085019290925280518085039092018252609c90930183528051908201206000908152908190529081205550610732565b60028103610732576106f48260200151836040015184606001516000610ebd565b600061070e30846040015185606001518660800151610c15565b9050801561073057610730303385604001518660600151876080015186610978565b505b50506001016105de565b505050505b6001016101ab565b5060005b835181101561083257600084828151811061076a5761076a611ba7565b6020026020010151905060006107928260000151836020015184604001518560600151610c15565b90508160800151811015610828576040517f08c379a000000000000000000000000000000000000000000000000000000000815260206004820152603060248201527f556e6976657273616c546f6b656e526f757465723a20494e535546464943494560448201527f4e545f4f55545055545f414d4f554e5400000000000000000000000000000000606482015260840161018a565b505060010161074d565b50478015610844576108443382611056565b50505050565b6040517fffffffffffffffffffffffffffffffffffffffff000000000000000000000000606088811b8216602084015287811b821660348401526048830187905285901b166068820152607c8101839052600090609c016040516020818303038152906040528051906020012090508160008083815260200190815260200160002054101561095b576040517f08c379a000000000000000000000000000000000000000000000000000000000815260206004820152602e60248201527f556e6976657273616c546f6b656e526f757465723a20494e535546464943494560448201527f4e545f415050524f5645414e4345000000000000000000000000000000000000606482015260840161018a565b600090815260208190526040902080549190910390555050505050565b836014036109b9573073ffffffffffffffffffffffffffffffffffffffff8716036109ad576109a8838683611165565b6100b5565b6109a8838787846112f4565b8361048303610a6d576040517ff242432a00000000000000000000000000000000000000000000000000000000815273ffffffffffffffffffffffffffffffffffffffff87811660048301528681166024830152604482018490526064820183905260a06084830152600060a483015284169063f242432a9060c4015b600060405180830381600087803b158015610a5057600080fd5b505af1158015610a64573d6000803e3d6000fd5b505050506100b5565b836102d103610ad9576040517f42842e0e00000000000000000000000000000000000000000000000000000000815273ffffffffffffffffffffffffffffffffffffffff87811660048301528681166024830152604482018490528416906342842e0e90606401610a36565b83610b8d5773ffffffffffffffffffffffffffffffffffffffff86163014610b83576040517f08c379a000000000000000000000000000000000000000000000000000000000815260206004820152602860248201527f556e6976657273616c546f6b656e526f757465723a20494e56414c49445f455460448201527f485f53454e444552000000000000000000000000000000000000000000000000606482015260840161018a565b6109a88582611056565b6040517f08c379a000000000000000000000000000000000000000000000000000000000815260206004820152602160248201527f556e6976657273616c546f6b656e526f757465723a20494e56414c49445f454960448201527f5000000000000000000000000000000000000000000000000000000000000000606482015260840161018a565b600083601403610cb7576040517f70a0823100000000000000000000000000000000000000000000000000000000815273ffffffffffffffffffffffffffffffffffffffff86811660048301528416906370a08231906024015b602060405180830381865afa158015610c8c573d6000803e3d6000fd5b505050506040513d601f19601f82011682018060405250810190610cb09190611c34565b9050610eb5565b8361048303610d19576040517efdd58e00000000000000000000000000000000000000000000000000000000815273ffffffffffffffffffffffffffffffffffffffff86811660048301526024820184905284169062fdd58e90604401610c6f565b836102d103610e96577ff2b78321daf989e73321bb72cbe2a5fab2d75ae52e3240a42772118067c318108201610d9d576040517f70a0823100000000000000000000000000000000000000000000000000000000815273ffffffffffffffffffffffffffffffffffffffff86811660048301528416906370a0823190602401610c6f565b6040517f6352211e0000000000000000000000000000000000000000000000000000000081526004810183905273ffffffffffffffffffffffffffffffffffffffff841690636352211e90602401602060405180830381865afa925050508015610e42575060408051601f3d9081017fffffffffffffffffffffffffffffffffffffffffffffffffffffffffffffffe0168201909252610e3f91810190611c4d565b60015b610e4e57506000610eb5565b8573ffffffffffffffffffffffffffffffffffffffff168173ffffffffffffffffffffffffffffffffffffffff1614610e88576000610e8b565b60015b60ff16915050610eb5565b83610b8d575073ffffffffffffffffffffffffffffffffffffffff8416315b949350505050565b82601403610ed557610ed082858361148b565b610844565b8261048303610f6d576040517fa22cb46500000000000000000000000000000000000000000000000000000000815273ffffffffffffffffffffffffffffffffffffffff8581166004830152821515602483015283169063a22cb465906044015b600060405180830381600087803b158015610f5057600080fd5b505af1158015610f64573d6000803e3d6000fd5b50505050610844565b826102d103610b8d576040517fa22cb46500000000000000000000000000000000000000000000000000000000815273ffffffffffffffffffffffffffffffffffffffff8581166004830152821515602483015283169063a22cb46590604401610f36565b6060604051905082815260208101838101602086015b81831015611000578051835260209283019201610fe8565b50835183518101845294507fffffffffffffffffffffffffffffffffffffffffffffffffffffffffffffffe0810191508401835b8183101561104c578051835260209283019201611034565b5050509392505050565b6040805160008082526020820190925273ffffffffffffffffffffffffffffffffffffffff841690839060405161108d9190611c05565b60006040518083038185875af1925050503d80600081146110ca576040519150601f19603f3d011682016040523d82523d6000602084013e6110cf565b606091505b5050905080611160576040517f08c379a000000000000000000000000000000000000000000000000000000000815260206004820152603460248201527f5472616e7366657248656c7065723a3a736166655472616e736665724554483a60448201527f20455448207472616e73666572206661696c6564000000000000000000000000606482015260840161018a565b505050565b6040805173ffffffffffffffffffffffffffffffffffffffff8481166024830152604480830185905283518084039091018152606490920183526020820180517bffffffffffffffffffffffffffffffffffffffffffffffffffffffff167fa9059cbb0000000000000000000000000000000000000000000000000000000017905291516000928392908716916111fc9190611c05565b6000604051808303816000865af19150503d8060008114611239576040519150601f19603f3d011682016040523d82523d6000602084013e61123e565b606091505b50915091508180156112685750805115806112685750808060200190518101906112689190611c71565b6100cb576040517f08c379a000000000000000000000000000000000000000000000000000000000815260206004820152602d60248201527f5472616e7366657248656c7065723a3a736166655472616e736665723a20747260448201527f616e73666572206661696c656400000000000000000000000000000000000000606482015260840161018a565b6040805173ffffffffffffffffffffffffffffffffffffffff85811660248301528481166044830152606480830185905283518084039091018152608490920183526020820180517bffffffffffffffffffffffffffffffffffffffffffffffffffffffff167f23b872dd0000000000000000000000000000000000000000000000000000000017905291516000928392908816916113939190611c05565b6000604051808303816000865af19150503d80600081146113d0576040519150601f19603f3d011682016040523d82523d6000602084013e6113d5565b606091505b50915091508180156113ff5750805115806113ff5750808060200190518101906113ff9190611c71565b6100b5576040517f08c379a000000000000000000000000000000000000000000000000000000000815260206004820152603160248201527f5472616e7366657248656c7065723a3a7472616e7366657246726f6d3a20747260448201527f616e7366657246726f6d206661696c6564000000000000000000000000000000606482015260840161018a565b6040805173ffffffffffffffffffffffffffffffffffffffff8481166024830152604480830185905283518084039091018152606490920183526020820180517bffffffffffffffffffffffffffffffffffffffffffffffffffffffff167f095ea7b30000000000000000000000000000000000000000000000000000000017905291516000928392908716916115229190611c05565b6000604051808303816000865af19150503d806000811461155f576040519150601f19603f3d011682016040523d82523d6000602084013e611564565b606091505b509150915081801561158e57508051158061158e57508080602001905181019061158e9190611c71565b6100cb576040517f08c379a000000000000000000000000000000000000000000000000000000000815260206004820152602b60248201527f5472616e7366657248656c7065723a3a73616665417070726f76653a2061707060448201527f726f7665206661696c6564000000000000000000000000000000000000000000606482015260840161018a565b73ffffffffffffffffffffffffffffffffffffffff8116811461163c57600080fd5b50565b803561164a8161161a565b919050565b60008060008060008060c0878903121561166857600080fd5b86356116738161161a565b955060208701356116838161161a565b945060408701359350606087013561169a8161161a565b9598949750929560808101359460a0909101359350915050565b600080600080600060a086880312156116cc57600080fd5b85356116d78161161a565b94506020860135935060408601356116ee8161161a565b94979396509394606081013594506080013592915050565b7f4e487b7100000000000000000000000000000000000000000000000000000000600052604160045260246000fd5b6040516080810167ffffffffffffffff8111828210171561175857611758611706565b60405290565b60405160e0810167ffffffffffffffff8111828210171561175857611758611706565b60405160a0810167ffffffffffffffff8111828210171561175857611758611706565b604051601f82017fffffffffffffffffffffffffffffffffffffffffffffffffffffffffffffffe016810167ffffffffffffffff811182821017156117eb576117eb611706565b604052919050565b600067ffffffffffffffff82111561180d5761180d611706565b5060051b60200190565b600082601f83011261182857600080fd5b813567ffffffffffffffff81111561184257611842611706565b61187360207fffffffffffffffffffffffffffffffffffffffffffffffffffffffffffffffe0601f840116016117a4565b81815284602083860101111561188857600080fd5b816020850160208301376000918101602001919091529392505050565b600082601f8301126118b657600080fd5b6118c86118c383356117f3565b6117a4565b82358082526020808301929160051b850101858111156118e757600080fd5b602085015b81811015611a905767ffffffffffffffff808235111561190b57600080fd5b8135870160807fffffffffffffffffffffffffffffffffffffffffffffffffffffffffffffffe0828b0301121561194157600080fd5b611949611735565b826020830135111561195a57600080fd5b602082013582018a603f82011261197057600080fd5b60208101356119816118c3826117f3565b81815260e090910282016040019060208101908d8311156119a157600080fd5b6040840193505b82841015611a375760e0848f0312156119c057600080fd5b6119c861175e565b843581526119d9602086013561161a565b60208501356020820152604085013560408201526119fa606086013561161a565b606085013560608201526080850135608082015260a085013560a082015260c085013560c08201528083525060208201915060e0840193506119a8565b845250505060408201356020820152611a526060830161163f565b60408201528260808301351115611a6857600080fd5b611a7b8a60206080850135850101611817565b606082015286525050602093840193016118ec565b509095945050505050565b6000806040808486031215611aaf57600080fd5b833567ffffffffffffffff80821115611ac757600080fd5b818601915086601f830112611adb57600080fd5b81356020611aeb6118c3836117f3565b82815260a0928302850182019282820191908b851115611b0a57600080fd5b958301955b84871015611b785780878d031215611b275760008081fd5b611b2f611781565b8735611b3a8161161a565b8152878501358582015288880135611b518161161a565b818a0152606088810135908201526080808901359082015283529586019591830191611b0f565b5097505087013593505080831115611b8f57600080fd5b5050611b9d858286016118a5565b9150509250929050565b7f4e487b7100000000000000000000000000000000000000000000000000000000600052603260045260246000fd5b7f4e487b7100000000000000000000000000000000000000000000000000000000600052601260045260246000fd5b6000825160005b81811015611c265760208186018101518583015201611c0c565b506000920191825250919050565b600060208284031215611c4657600080fd5b5051919050565b600060208284031215611c5f57600080fd5b8151611c6a8161161a565b9392505050565b600060208284031215611c8357600080fd5b81518015158114611c6a57600080fdfea2646970667358221220793fd25c84174548958b588fee17b09fd290bdad2da89e8f68befeb41f99165964736f6c63430008120033",
  "linkReferences": {},
  "deployedLinkReferences": {}
}