{
  "_format": "hh-sol-artifact-1",
  "contractName": "UniversalTokenRouter",
  "sourceName": "contracts/UniversalTokenRouter.sol",
  "abi": [
    {
      "inputs": [
        {
          "components": [
            {
              "internalType": "uint256",
              "name": "output",
              "type": "uint256"
            },
            {
              "internalType": "address",
              "name": "code",
              "type": "address"
            },
            {
              "internalType": "bytes",
              "name": "data",
              "type": "bytes"
            },
            {
              "components": [
                {
                  "internalType": "uint256",
                  "name": "eip",
                  "type": "uint256"
                },
                {
                  "internalType": "address",
                  "name": "adr",
                  "type": "address"
                },
                {
                  "internalType": "uint256",
                  "name": "id",
                  "type": "uint256"
                },
                {
                  "internalType": "uint256",
                  "name": "amount",
                  "type": "uint256"
                },
                {
                  "internalType": "uint256",
                  "name": "offset",
                  "type": "uint256"
                },
                {
                  "internalType": "address",
                  "name": "recipient",
                  "type": "address"
                }
              ],
              "internalType": "struct Token[]",
              "name": "tokens",
              "type": "tuple[]"
            }
          ],
          "internalType": "struct Action[]",
          "name": "actions",
          "type": "tuple[]"
        }
      ],
      "name": "exec",
      "outputs": [],
      "stateMutability": "payable",
      "type": "function"
    }
  ],
  "bytecode": "0x608060405234801561001057600080fd5b50611724806100206000396000f3fe60806040526004361061001e5760003560e01c80632bcfc96114610023575b600080fd5b6100366100313660046111ed565b610038565b005b60008167ffffffffffffffff81111561005357610053611262565b60405190808252806020026020018201604052801561008657816020015b60608152602001906001900390816100715790505b50905060005b82811015610309578383828181106100a6576100a6611291565b90506020028101906100b891906112c0565b3515806100f657508383828181106100d2576100d2611291565b90506020028101906100e491906112c0565b6100f29060608101906112fe565b1590505b6103015783838281811061010c5761010c611291565b905060200281019061011e91906112c0565b61012c9060608101906112fe565b905067ffffffffffffffff81111561014657610146611262565b60405190808252806020026020018201604052801561016f578160200160208202803683370190505b5082828151811061018257610182611291565b602002602001018190525060005b8282815181106101a2576101a2611291565b6020026020010151518110156102ff578484838181106101c4576101c4611291565b90506020028101906101d691906112c0565b6101e49060608101906112fe565b828181106101f4576101f4611291565b905060c00201608001356000036102f7576102bf85858481811061021a5761021a611291565b905060200281019061022c91906112c0565b61023a9060608101906112fe565b8381811061024a5761024a611291565b905060c002018036038101906102609190611496565b86868581811061027257610272611291565b905060200281019061028491906112c0565b6102929060608101906112fe565b848181106102a2576102a2611291565b905060c0020160a00160208101906102ba91906114b9565b610840565b8383815181106102d1576102d1611291565b602002602001015182815181106102ea576102ea611291565b6020026020010181815250505b600101610190565b505b60010161008c565b506000606060005b8481101561082657600086868381811061032d5761032d611291565b905060200281019061033f91906112c0565b61034890611560565b805190915060000361052e57604081015151156103e4576000816020015173ffffffffffffffffffffffffffffffffffffffff16826040015160405161038e919061165b565b6000604051808303816000865af19150503d80600081146103cb576040519150601f19603f3d011682016040523d82523d6000602084013e6103d0565b606091505b5094509050806103e257835160208501fd5b505b60005b8160600151518110156105285760008260600151828151811061040c5761040c611291565b6020026020010151905060208160800151106104d3576000610432868360800151015190565b905081606001518111156104cd576040517f08c379a000000000000000000000000000000000000000000000000000000000815260206004820152602c60248201527f556e6976657273616c546f6b656e526f757465723a204558434553534956455f60448201527f494e5055545f414d4f554e54000000000000000000000000000000000000000060648201526084015b60405180910390fd5b60608201525b80511580156104fa575060a081015173ffffffffffffffffffffffffffffffffffffffff16155b1561050b578060600151955061051f565b60608101511561051f5761051f8133610b66565b506001016103e7565b5061081d565b604081015151156106645760408101515160648110801590610576575060408201518101517fc752b293578350488711c09dc69805d9e70939d951cb2b8660ec3e5bde0a20b0145b80156105ab5750604082015181017fffffffffffffffffffffffffffffffffffffffffffffffffffffffffffffffe001516020145b156105c8576105c282604001516020830386610d1c565b60408301525b600080836020015173ffffffffffffffffffffffffffffffffffffffff168785604001516040516105f9919061165b565b60006040518083038185875af1925050503d8060008114610636576040519150601f19603f3d011682016040523d82523d6000602084013e61063b565b606091505b50915091508115801561064f575083516002145b1561065c57805160208201fd5b600096505050505b60005b81606001515181101561081b57600088888581811061068857610688611291565b905060200281019061069a91906112c0565b6106a89060608101906112fe565b838181106106b8576106b8611291565b905060c002018036038101906106ce9190611496565b6080810151909150156107245760208160800151106106f95760808101518501516060820152610715565b80606001516000036107155761070f8130610840565b60608201525b61071f8130610b66565b610812565b6000610734828360a00151610840565b9050600088868151811061074a5761074a611291565b6020026020010151848151811061076357610763611291565b602002602001015182039050826060015181101580156107835750818111155b61080f576040517f08c379a000000000000000000000000000000000000000000000000000000000815260206004820152603060248201527f556e6976657273616c546f6b656e526f757465723a20494e535546464943494560448201527f4e545f4f55545055545f414d4f554e540000000000000000000000000000000060648201526084016104c4565b50505b50600101610667565b505b50600101610311565b50478015610838576108383382610db1565b505050505050565b81516000906014036108ea5760208301516040517f70a0823100000000000000000000000000000000000000000000000000000000815273ffffffffffffffffffffffffffffffffffffffff8481166004830152909116906370a08231906024015b602060405180830381865afa1580156108bf573d6000803e3d6000fd5b505050506040513d601f19601f820116820180604052508101906108e39190611696565b9050610b60565b82516104830361095857602083015160408085015190517efdd58e00000000000000000000000000000000000000000000000000000000815273ffffffffffffffffffffffffffffffffffffffff8581166004830152602482019290925291169062fdd58e906044016108a2565b82516102d103610ab15760408301517f3a8612d0e89a6bdc753f6815220b80a99ad812d6d7c319513f8b74f2bf5bf589016109e75760208301516040517f70a0823100000000000000000000000000000000000000000000000000000000815273ffffffffffffffffffffffffffffffffffffffff8481166004830152909116906370a08231906024016108a2565b8173ffffffffffffffffffffffffffffffffffffffff16836020015173ffffffffffffffffffffffffffffffffffffffff16636352211e85604001516040518263ffffffff1660e01b8152600401610a4191815260200190565b602060405180830381865afa158015610a5e573d6000803e3d6000fd5b505050506040513d601f19601f82011682018060405250810190610a8291906116af565b73ffffffffffffffffffffffffffffffffffffffff1614610aa4576000610aa7565b60015b60ff169050610b60565b8251600003610ad8575073ffffffffffffffffffffffffffffffffffffffff811631610b60565b6040517f08c379a000000000000000000000000000000000000000000000000000000000815260206004820152602160248201527f556e6976657273616c546f6b656e526f757465723a20494e56414c49445f454960448201527f500000000000000000000000000000000000000000000000000000000000000060648201526084016104c4565b92915050565b8151601403610bbf573073ffffffffffffffffffffffffffffffffffffffff821603610ba757610ba382602001518360a001518460600151610ec0565b5050565b610ba38260200151828460a001518560600151611056565b815161048303610c8457602082015160a080840151604080860151606087015191517ff242432a00000000000000000000000000000000000000000000000000000000815273ffffffffffffffffffffffffffffffffffffffff87811660048301529384166024820152604481019190915260648101919091526084810192909252600060a48301529091169063f242432a9060c4015b600060405180830381600087803b158015610c7057600080fd5b505af1158015610838573d6000803e3d6000fd5b81516102d103610d0157602082015160a083015160408085015190517f42842e0e00000000000000000000000000000000000000000000000000000000815273ffffffffffffffffffffffffffffffffffffffff8581166004830152928316602482015260448101919091529116906342842e0e90606401610c56565b8151600003610ad857610ba38260a001518360600151610db1565b6060604051905082815260208101838101602086015b81831015610d4a578051835260209283019201610d32565b50835183518101845294507fffffffffffffffffffffffffffffffffffffffffffffffffffffffffffffffe0810191508401835b81831015610d96578051835260209283019201610d7e565b50601f19601f87518701158301011660405250509392505050565b6040805160008082526020820190925273ffffffffffffffffffffffffffffffffffffffff8416908390604051610de8919061165b565b60006040518083038185875af1925050503d8060008114610e25576040519150601f19603f3d011682016040523d82523d6000602084013e610e2a565b606091505b5050905080610ebb576040517f08c379a000000000000000000000000000000000000000000000000000000000815260206004820152603460248201527f5472616e7366657248656c7065723a3a736166655472616e736665724554483a60448201527f20455448207472616e73666572206661696c656400000000000000000000000060648201526084016104c4565b505050565b6040805173ffffffffffffffffffffffffffffffffffffffff8481166024830152604480830185905283518084039091018152606490920183526020820180517bffffffffffffffffffffffffffffffffffffffffffffffffffffffff167fa9059cbb000000000000000000000000000000000000000000000000000000001790529151600092839290871691610f57919061165b565b6000604051808303816000865af19150503d8060008114610f94576040519150601f19603f3d011682016040523d82523d6000602084013e610f99565b606091505b5091509150818015610fc3575080511580610fc3575080806020019051810190610fc391906116cc565b61104f576040517f08c379a000000000000000000000000000000000000000000000000000000000815260206004820152602d60248201527f5472616e7366657248656c7065723a3a736166655472616e736665723a20747260448201527f616e73666572206661696c65640000000000000000000000000000000000000060648201526084016104c4565b5050505050565b6040805173ffffffffffffffffffffffffffffffffffffffff85811660248301528481166044830152606480830185905283518084039091018152608490920183526020820180517bffffffffffffffffffffffffffffffffffffffffffffffffffffffff167f23b872dd0000000000000000000000000000000000000000000000000000000017905291516000928392908816916110f5919061165b565b6000604051808303816000865af19150503d8060008114611132576040519150601f19603f3d011682016040523d82523d6000602084013e611137565b606091505b509150915081801561116157508051158061116157508080602001905181019061116191906116cc565b610838576040517f08c379a000000000000000000000000000000000000000000000000000000000815260206004820152603160248201527f5472616e7366657248656c7065723a3a7472616e7366657246726f6d3a20747260448201527f616e7366657246726f6d206661696c656400000000000000000000000000000060648201526084016104c4565b6000806020838503121561120057600080fd5b823567ffffffffffffffff8082111561121857600080fd5b818501915085601f83011261122c57600080fd5b81358181111561123b57600080fd5b8660208260051b850101111561125057600080fd5b60209290920196919550909350505050565b7f4e487b7100000000000000000000000000000000000000000000000000000000600052604160045260246000fd5b7f4e487b7100000000000000000000000000000000000000000000000000000000600052603260045260246000fd5b600082357fffffffffffffffffffffffffffffffffffffffffffffffffffffffffffffff818336030181126112f457600080fd5b9190910192915050565b60008083357fffffffffffffffffffffffffffffffffffffffffffffffffffffffffffffffe184360301811261133357600080fd5b83018035915067ffffffffffffffff82111561134e57600080fd5b602001915060c08102360382131561136557600080fd5b9250929050565b6040516080810167ffffffffffffffff8111828210171561138f5761138f611262565b60405290565b604051601f82017fffffffffffffffffffffffffffffffffffffffffffffffffffffffffffffffe016810167ffffffffffffffff811182821017156113dc576113dc611262565b604052919050565b73ffffffffffffffffffffffffffffffffffffffff8116811461140657600080fd5b50565b600060c0828403121561141b57600080fd5b60405160c0810181811067ffffffffffffffff8211171561143e5761143e611262565b604052823581529050806020830135611456816113e4565b8060208301525060408301356040820152606083013560608201526080830135608082015260a0830135611489816113e4565b60a0919091015292915050565b600060c082840312156114a857600080fd5b6114b28383611409565b9392505050565b6000602082840312156114cb57600080fd5b81356114b2816113e4565b600082601f8301126114e757600080fd5b8135602067ffffffffffffffff82111561150357611503611262565b611511818360051b01611395565b82815260c0928302850182019282820191908785111561153057600080fd5b8387015b85811015611553576115468982611409565b8452928401928101611534565b5090979650505050505050565b60006080823603121561157257600080fd5b61157a61136c565b8235815260208084013561158d816113e4565b82820152604084013567ffffffffffffffff808211156115ac57600080fd5b9085019036601f8301126115bf57600080fd5b8135818111156115d1576115d1611262565b611601847fffffffffffffffffffffffffffffffffffffffffffffffffffffffffffffffe0601f84011601611395565b818152368583860101111561161557600080fd5b818585018683013760008583830101528060408701525050606086013592508083111561164157600080fd5b505061164f368286016114d6565b60608301525092915050565b6000825160005b8181101561167c5760208186018101518583015201611662565b8181111561168b576000828501525b509190910192915050565b6000602082840312156116a857600080fd5b5051919050565b6000602082840312156116c157600080fd5b81516114b2816113e4565b6000602082840312156116de57600080fd5b815180151581146114b257600080fdfea2646970667358221220883581cff0a04dceedc3f0c2217d7e5dbacbcaf716af150d930d9145d762e63964736f6c634300080d0033",
  "linkReferences": {},
  "deployedLinkReferences": {}
}