{
  "_format": "hh-sol-artifact-1",
  "contractName": "UniversalTokenRouter",
  "sourceName": "contracts/UniversalTokenRouter.sol",
  "abi": [
    {
      "inputs": [
        {
          "internalType": "address",
          "name": "sender",
          "type": "address"
        },
        {
          "internalType": "uint256",
          "name": "eip",
          "type": "uint256"
        },
        {
          "internalType": "address",
          "name": "token",
          "type": "address"
        },
        {
          "internalType": "uint256",
          "name": "id",
          "type": "uint256"
        },
        {
          "internalType": "uint256",
          "name": "amount",
          "type": "uint256"
        }
      ],
      "name": "discard",
      "outputs": [],
      "stateMutability": "nonpayable",
      "type": "function"
    },
    {
      "inputs": [
        {
          "components": [
            {
              "internalType": "address",
              "name": "recipient",
              "type": "address"
            },
            {
              "internalType": "uint256",
              "name": "eip",
              "type": "uint256"
            },
            {
              "internalType": "address",
              "name": "token",
              "type": "address"
            },
            {
              "internalType": "uint256",
              "name": "id",
              "type": "uint256"
            },
            {
              "internalType": "uint256",
              "name": "amountOutMin",
              "type": "uint256"
            }
          ],
          "internalType": "struct Output[]",
          "name": "outputs",
          "type": "tuple[]"
        },
        {
          "components": [
            {
              "components": [
                {
                  "internalType": "uint256",
                  "name": "mode",
                  "type": "uint256"
                },
                {
                  "internalType": "address",
                  "name": "recipient",
                  "type": "address"
                },
                {
                  "internalType": "uint256",
                  "name": "eip",
                  "type": "uint256"
                },
                {
                  "internalType": "address",
                  "name": "token",
                  "type": "address"
                },
                {
                  "internalType": "uint256",
                  "name": "id",
                  "type": "uint256"
                },
                {
                  "internalType": "uint256",
                  "name": "amountInMax",
                  "type": "uint256"
                },
                {
                  "internalType": "uint256",
                  "name": "amountSource",
                  "type": "uint256"
                }
              ],
              "internalType": "struct Input[]",
              "name": "inputs",
              "type": "tuple[]"
            },
            {
              "internalType": "uint256",
              "name": "flags",
              "type": "uint256"
            },
            {
              "internalType": "address",
              "name": "code",
              "type": "address"
            },
            {
              "internalType": "bytes",
              "name": "data",
              "type": "bytes"
            }
          ],
          "internalType": "struct Action[]",
          "name": "actions",
          "type": "tuple[]"
        }
      ],
      "name": "exec",
      "outputs": [],
      "stateMutability": "payable",
      "type": "function"
    },
    {
      "inputs": [
        {
          "internalType": "address",
          "name": "sender",
          "type": "address"
        },
        {
          "internalType": "address",
          "name": "recipient",
          "type": "address"
        },
        {
          "internalType": "uint256",
          "name": "eip",
          "type": "uint256"
        },
        {
          "internalType": "address",
          "name": "token",
          "type": "address"
        },
        {
          "internalType": "uint256",
          "name": "id",
          "type": "uint256"
        },
        {
          "internalType": "uint256",
          "name": "amount",
          "type": "uint256"
        }
      ],
      "name": "pay",
      "outputs": [],
      "stateMutability": "nonpayable",
      "type": "function"
    },
    {
      "stateMutability": "payable",
      "type": "receive"
    }
  ],
  "bytecode": "0x6080604052600160005534801561001557600080fd5b50611d90806100256000396000f3fe6080604052600436106100385760003560e01c806303886f3c146100445780631d2ec9ae146100665780632a5baa781461008657600080fd5b3661003f57005b600080fd5b34801561005057600080fd5b5061006461005f366004611716565b610099565b005b34801561007257600080fd5b5061006461008136600461177b565b6100bd565b610064610094366004611b62565b6100d2565b6100a78686868686866108fb565b6100b5868686868686610a2a565b505050505050565b6100cb8533868686866108fb565b5050505050565b600260005403610169576040517f08c379a000000000000000000000000000000000000000000000000000000000815260206004820152602660248201527f556e6976657273616c546f6b656e526f757465723a205245454e54524143545f60448201527f4c4f434b4544000000000000000000000000000000000000000000000000000060648201526084015b60405180910390fd5b60005b825181101561023757600083828151811061018957610189611c6e565b6020026020010151905060006101b18260000151836020015184604001518560600151610cc7565b6080830151909150810181811015610225576040517f08c379a000000000000000000000000000000000000000000000000000000000815260206004820152601e60248201527f556e6976657273616c546f6b656e526f757465723a204f564552464c4f5700006044820152606401610160565b6080909201919091525060010161016c565b50606060005b82518110156107f057600083828151811061025a5761025a611c6e565b6020026020010151905060008060005b8351518110156105845760008460000151828151811061028c5761028c611c6e565b602090810291909101015180519091506000600a82046001146102af57336102b1565b305b90506000808460c00151036102cb575060a0830151610394565b60018460c00151036102f6576102ef82856040015186606001518760800151610cc7565b9050610300565b5060c08301518901515b8360a00151811115610394576040517f08c379a000000000000000000000000000000000000000000000000000000000815260206004820152602c60248201527f556e6976657273616c546f6b656e526f757465723a204558434553534956455f60448201527f494e5055545f414d4f554e5400000000000000000000000000000000000000006064820152608401610160565b600383036103a757955061057c92505050565b600a83069250600183036103d8576103d382856020015186604001518760600151886080015186610a2a565b610577565b60019550826104785760208481015160408087015160608089015160808a015184517fffffffffffffffffffffffffffffffffffffffff0000000000000000000000008a851b8116828a015296841b871660348201526048810194909452911b9093166068820152607c8082019390935281518082039093018352609c018152815191830191909120600090815260019092529020805482019055610577565b600283036104ef576104b88460200151856040015186606001517fffffffffffffffffffffffffffffffffffffffffffffffffffffffffffffffff610f6f565b73ffffffffffffffffffffffffffffffffffffffff821630146103d3576103d3823086604001518760600151886080015186610a2a565b6040517f08c379a000000000000000000000000000000000000000000000000000000000815260206004820152602260248201527f556e6976657273616c546f6b656e526f757465723a20494e56414c49445f4d4f60448201527f44450000000000000000000000000000000000000000000000000000000000006064820152608401610160565b505050505b60010161026a565b5060608301515115610674576020830151600416156105b557606083015180516105af919087611084565b60608401525b6105c86008846020015116600014611108565b600080846040015173ffffffffffffffffffffffffffffffffffffffff168486606001516040516105f99190611ccc565b60006040518083038185875af1925050503d8060008114610636576040519150601f19603f3d011682016040523d82523d6000602084013e61063b565b606091505b50915091508115801561065357506020850151600116155b1561066057805160208201fd5b602085015160021615610671578096505b50505b80610681575050506107e8565b60005b8351518110156107e3576000846000015182815181106106a6576106a6611c6e565b602002602001015190506000600a8260000151816106c6576106c6611c9d565b0690508061077a578151600090600a90046001146106e457336106e6565b305b60208481015160408087015160608089015160808a0151845197831b7fffffffffffffffffffffffffffffffffffffffff0000000000000000000000009081168989015295831b861660348901526048880193909352901b9092166068850152607c8085019290925280518085039092018252609c90930183528051908201206000908152600190915290812055506107d9565b600281036107d95761079b8260200151836040015184606001516000610f6f565b60006107b530846040015185606001518660800151610cc7565b905080156107d7576107d7303385604001518660600151876080015186610a2a565b505b5050600101610684565b505050505b60010161023d565b5060005b83518110156108d957600084828151811061081157610811611c6e565b6020026020010151905060006108398260000151836020015184604001518560600151610cc7565b905081608001518110156108cf576040517f08c379a000000000000000000000000000000000000000000000000000000000815260206004820152603060248201527f556e6976657273616c546f6b656e526f757465723a20494e535546464943494560448201527f4e545f4f55545055545f414d4f554e54000000000000000000000000000000006064820152608401610160565b50506001016107f4565b504780156108eb576108eb338261111d565b6108f56000611108565b50505050565b6040517fffffffffffffffffffffffffffffffffffffffff000000000000000000000000606088811b8216602084015287811b821660348401526048830187905285901b166068820152607c8101839052600090609c016040516020818303038152906040528051906020012090508160016000838152602001908152602001600020541015610a0d576040517f08c379a000000000000000000000000000000000000000000000000000000000815260206004820152602a60248201527f556e6976657273616c546f6b656e526f757465723a20494e535546464943494560448201527f4e545f5041594d454e54000000000000000000000000000000000000000000006064820152608401610160565b600090815260016020526040902080549190910390555050505050565b83601403610a6b573073ffffffffffffffffffffffffffffffffffffffff871603610a5f57610a5a83868361122c565b6100b5565b610a5a838787846113bb565b8361048303610b1f576040517ff242432a00000000000000000000000000000000000000000000000000000000815273ffffffffffffffffffffffffffffffffffffffff87811660048301528681166024830152604482018490526064820183905260a06084830152600060a483015284169063f242432a9060c4015b600060405180830381600087803b158015610b0257600080fd5b505af1158015610b16573d6000803e3d6000fd5b505050506100b5565b836102d103610b8b576040517f42842e0e00000000000000000000000000000000000000000000000000000000815273ffffffffffffffffffffffffffffffffffffffff87811660048301528681166024830152604482018490528416906342842e0e90606401610ae8565b83610c3f5773ffffffffffffffffffffffffffffffffffffffff86163014610c35576040517f08c379a000000000000000000000000000000000000000000000000000000000815260206004820152602860248201527f556e6976657273616c546f6b656e526f757465723a20494e56414c49445f455460448201527f485f53454e4445520000000000000000000000000000000000000000000000006064820152608401610160565b610a5a858261111d565b6040517f08c379a000000000000000000000000000000000000000000000000000000000815260206004820152602160248201527f556e6976657273616c546f6b656e526f757465723a20494e56414c49445f454960448201527f50000000000000000000000000000000000000000000000000000000000000006064820152608401610160565b600083601403610d69576040517f70a0823100000000000000000000000000000000000000000000000000000000815273ffffffffffffffffffffffffffffffffffffffff86811660048301528416906370a08231906024015b602060405180830381865afa158015610d3e573d6000803e3d6000fd5b505050506040513d601f19601f82011682018060405250810190610d629190611cfb565b9050610f67565b8361048303610dcb576040517efdd58e00000000000000000000000000000000000000000000000000000000815273ffffffffffffffffffffffffffffffffffffffff86811660048301526024820184905284169062fdd58e90604401610d21565b836102d103610f48577ff2b78321daf989e73321bb72cbe2a5fab2d75ae52e3240a42772118067c318108201610e4f576040517f70a0823100000000000000000000000000000000000000000000000000000000815273ffffffffffffffffffffffffffffffffffffffff86811660048301528416906370a0823190602401610d21565b6040517f6352211e0000000000000000000000000000000000000000000000000000000081526004810183905273ffffffffffffffffffffffffffffffffffffffff841690636352211e90602401602060405180830381865afa925050508015610ef4575060408051601f3d9081017fffffffffffffffffffffffffffffffffffffffffffffffffffffffffffffffe0168201909252610ef191810190611d14565b60015b610f0057506000610f67565b8573ffffffffffffffffffffffffffffffffffffffff168173ffffffffffffffffffffffffffffffffffffffff1614610f3a576000610f3d565b60015b60ff16915050610f67565b83610c3f575073ffffffffffffffffffffffffffffffffffffffff8416315b949350505050565b82601403610f8757610f82828583611552565b6108f5565b826104830361101f576040517fa22cb46500000000000000000000000000000000000000000000000000000000815273ffffffffffffffffffffffffffffffffffffffff8581166004830152821515602483015283169063a22cb465906044015b600060405180830381600087803b15801561100257600080fd5b505af1158015611016573d6000803e3d6000fd5b505050506108f5565b826102d103610c3f576040517fa22cb46500000000000000000000000000000000000000000000000000000000815273ffffffffffffffffffffffffffffffffffffffff8581166004830152821515602483015283169063a22cb46590604401610fe8565b6060604051905082815260208101838101602086015b818310156110b257805183526020928301920161109a565b50835183518101845294507fffffffffffffffffffffffffffffffffffffffffffffffffffffffffffffffe0810191508401835b818310156110fe5780518352602092830192016110e6565b5050509392505050565b80611114576001611117565b60025b60005550565b6040805160008082526020820190925273ffffffffffffffffffffffffffffffffffffffff84169083906040516111549190611ccc565b60006040518083038185875af1925050503d8060008114611191576040519150601f19603f3d011682016040523d82523d6000602084013e611196565b606091505b5050905080611227576040517f08c379a000000000000000000000000000000000000000000000000000000000815260206004820152603460248201527f5472616e7366657248656c7065723a3a736166655472616e736665724554483a60448201527f20455448207472616e73666572206661696c65640000000000000000000000006064820152608401610160565b505050565b6040805173ffffffffffffffffffffffffffffffffffffffff8481166024830152604480830185905283518084039091018152606490920183526020820180517bffffffffffffffffffffffffffffffffffffffffffffffffffffffff167fa9059cbb0000000000000000000000000000000000000000000000000000000017905291516000928392908716916112c39190611ccc565b6000604051808303816000865af19150503d8060008114611300576040519150601f19603f3d011682016040523d82523d6000602084013e611305565b606091505b509150915081801561132f57508051158061132f57508080602001905181019061132f9190611d38565b6100cb576040517f08c379a000000000000000000000000000000000000000000000000000000000815260206004820152602d60248201527f5472616e7366657248656c7065723a3a736166655472616e736665723a20747260448201527f616e73666572206661696c6564000000000000000000000000000000000000006064820152608401610160565b6040805173ffffffffffffffffffffffffffffffffffffffff85811660248301528481166044830152606480830185905283518084039091018152608490920183526020820180517bffffffffffffffffffffffffffffffffffffffffffffffffffffffff167f23b872dd00000000000000000000000000000000000000000000000000000000179052915160009283929088169161145a9190611ccc565b6000604051808303816000865af19150503d8060008114611497576040519150601f19603f3d011682016040523d82523d6000602084013e61149c565b606091505b50915091508180156114c65750805115806114c65750808060200190518101906114c69190611d38565b6100b5576040517f08c379a000000000000000000000000000000000000000000000000000000000815260206004820152603160248201527f5472616e7366657248656c7065723a3a7472616e7366657246726f6d3a20747260448201527f616e7366657246726f6d206661696c65640000000000000000000000000000006064820152608401610160565b6040805173ffffffffffffffffffffffffffffffffffffffff8481166024830152604480830185905283518084039091018152606490920183526020820180517bffffffffffffffffffffffffffffffffffffffffffffffffffffffff167f095ea7b30000000000000000000000000000000000000000000000000000000017905291516000928392908716916115e99190611ccc565b6000604051808303816000865af19150503d8060008114611626576040519150601f19603f3d011682016040523d82523d6000602084013e61162b565b606091505b50915091508180156116555750805115806116555750808060200190518101906116559190611d38565b6100cb576040517f08c379a000000000000000000000000000000000000000000000000000000000815260206004820152602b60248201527f5472616e7366657248656c7065723a3a73616665417070726f76653a2061707060448201527f726f7665206661696c65640000000000000000000000000000000000000000006064820152608401610160565b73ffffffffffffffffffffffffffffffffffffffff8116811461170357600080fd5b50565b8035611711816116e1565b919050565b60008060008060008060c0878903121561172f57600080fd5b863561173a816116e1565b9550602087013561174a816116e1565b9450604087013593506060870135611761816116e1565b9598949750929560808101359460a0909101359350915050565b600080600080600060a0868803121561179357600080fd5b853561179e816116e1565b94506020860135935060408601356117b5816116e1565b94979396509394606081013594506080013592915050565b7f4e487b7100000000000000000000000000000000000000000000000000000000600052604160045260246000fd5b6040516080810167ffffffffffffffff8111828210171561181f5761181f6117cd565b60405290565b60405160e0810167ffffffffffffffff8111828210171561181f5761181f6117cd565b60405160a0810167ffffffffffffffff8111828210171561181f5761181f6117cd565b604051601f82017fffffffffffffffffffffffffffffffffffffffffffffffffffffffffffffffe016810167ffffffffffffffff811182821017156118b2576118b26117cd565b604052919050565b600067ffffffffffffffff8211156118d4576118d46117cd565b5060051b60200190565b600082601f8301126118ef57600080fd5b813567ffffffffffffffff811115611909576119096117cd565b61193a60207fffffffffffffffffffffffffffffffffffffffffffffffffffffffffffffffe0601f8401160161186b565b81815284602083860101111561194f57600080fd5b816020850160208301376000918101602001919091529392505050565b600082601f83011261197d57600080fd5b61198f61198a83356118ba565b61186b565b82358082526020808301929160051b850101858111156119ae57600080fd5b602085015b81811015611b575767ffffffffffffffff80823511156119d257600080fd5b8135870160807fffffffffffffffffffffffffffffffffffffffffffffffffffffffffffffffe0828b03011215611a0857600080fd5b611a106117fc565b8260208301351115611a2157600080fd5b602082013582018a603f820112611a3757600080fd5b6020810135611a4861198a826118ba565b81815260e090910282016040019060208101908d831115611a6857600080fd5b6040840193505b82841015611afe5760e0848f031215611a8757600080fd5b611a8f611825565b84358152611aa060208601356116e1565b6020850135602082015260408501356040820152611ac160608601356116e1565b606085013560608201526080850135608082015260a085013560a082015260c085013560c08201528083525060208201915060e084019350611a6f565b845250505060408201356020820152611b1960608301611706565b60408201528260808301351115611b2f57600080fd5b611b428a602060808501358501016118de565b606082015286525050602093840193016119b3565b509095945050505050565b6000806040808486031215611b7657600080fd5b833567ffffffffffffffff80821115611b8e57600080fd5b818601915086601f830112611ba257600080fd5b81356020611bb261198a836118ba565b82815260a0928302850182019282820191908b851115611bd157600080fd5b958301955b84871015611c3f5780878d031215611bee5760008081fd5b611bf6611848565b8735611c01816116e1565b8152878501358582015288880135611c18816116e1565b818a0152606088810135908201526080808901359082015283529586019591830191611bd6565b5097505087013593505080831115611c5657600080fd5b5050611c648582860161196c565b9150509250929050565b7f4e487b7100000000000000000000000000000000000000000000000000000000600052603260045260246000fd5b7f4e487b7100000000000000000000000000000000000000000000000000000000600052601260045260246000fd5b6000825160005b81811015611ced5760208186018101518583015201611cd3565b506000920191825250919050565b600060208284031215611d0d57600080fd5b5051919050565b600060208284031215611d2657600080fd5b8151611d31816116e1565b9392505050565b600060208284031215611d4a57600080fd5b81518015158114611d3157600080fdfea2646970667358221220a0a390f1cb197321f7bdca5422ead2577f15810c46ca4dae03d61c84abeb4f6364736f6c63430008120033",
  "linkReferences": {},
  "deployedLinkReferences": {}
}