{
  "_format": "hh-sol-artifact-1",
  "contractName": "UniversalTokenRouter",
  "sourceName": "contracts/UniversalTokenRouter.sol",
  "abi": [
    {
      "inputs": [
        {
          "components": [
            {
              "internalType": "address",
              "name": "recipient",
              "type": "address"
            },
            {
              "internalType": "uint256",
              "name": "eip",
              "type": "uint256"
            },
            {
              "internalType": "address",
              "name": "token",
              "type": "address"
            },
            {
              "internalType": "uint256",
              "name": "id",
              "type": "uint256"
            },
            {
              "internalType": "uint256",
              "name": "amountOutMin",
              "type": "uint256"
            }
          ],
          "internalType": "struct Output[]",
          "name": "outputs",
          "type": "tuple[]"
        },
        {
          "components": [
            {
              "components": [
                {
                  "internalType": "uint256",
                  "name": "mode",
                  "type": "uint256"
                },
                {
                  "internalType": "address",
                  "name": "recipient",
                  "type": "address"
                },
                {
                  "internalType": "uint256",
                  "name": "eip",
                  "type": "uint256"
                },
                {
                  "internalType": "address",
                  "name": "token",
                  "type": "address"
                },
                {
                  "internalType": "uint256",
                  "name": "id",
                  "type": "uint256"
                },
                {
                  "internalType": "uint256",
                  "name": "amountInMax",
                  "type": "uint256"
                },
                {
                  "internalType": "uint256",
                  "name": "amountSource",
                  "type": "uint256"
                }
              ],
              "internalType": "struct Input[]",
              "name": "inputs",
              "type": "tuple[]"
            },
            {
              "internalType": "uint256",
              "name": "flags",
              "type": "uint256"
            },
            {
              "internalType": "address",
              "name": "code",
              "type": "address"
            },
            {
              "internalType": "bytes",
              "name": "data",
              "type": "bytes"
            }
          ],
          "internalType": "struct Action[]",
          "name": "actions",
          "type": "tuple[]"
        }
      ],
      "name": "exec",
      "outputs": [],
      "stateMutability": "payable",
      "type": "function"
    },
    {
      "inputs": [
        {
          "internalType": "address",
          "name": "sender",
          "type": "address"
        },
        {
          "internalType": "address",
          "name": "recipient",
          "type": "address"
        },
        {
          "internalType": "uint256",
          "name": "eip",
          "type": "uint256"
        },
        {
          "internalType": "address",
          "name": "token",
          "type": "address"
        },
        {
          "internalType": "uint256",
          "name": "id",
          "type": "uint256"
        },
        {
          "internalType": "uint256",
          "name": "amount",
          "type": "uint256"
        }
      ],
      "name": "pay",
      "outputs": [],
      "stateMutability": "nonpayable",
      "type": "function"
    },
    {
      "stateMutability": "payable",
      "type": "receive"
    }
  ],
  "bytecode": "0x608060405234801561001057600080fd5b50611be5806100206000396000f3fe60806040526004361061002d5760003560e01c806303886f3c146100395780632a5baa781461005b57600080fd5b3661003457005b600080fd5b34801561004557600080fd5b506100596100543660046115ec565b61006e565b005b6100596100693660046119e6565b6101b0565b6040517fffffffffffffffffffffffffffffffffffffffff000000000000000000000000606088811b8216602084015287811b821660348401526048830187905285901b166068820152607c8101839052600090609c0160405160208183030381529060405280519060200120905081600080838152602001908152602001600020541015610184576040517f08c379a000000000000000000000000000000000000000000000000000000000815260206004820152602c60248201527f556e6976657273616c546f6b656e526f757465723a20494e535546464943494560448201527f4e545f414c4c4f57414e4345000000000000000000000000000000000000000060648201526084015b60405180910390fd5b6000818152602081905260409020805483900390556101a7878787878787610907565b50505050505050565b60005b825181101561027e5760008382815181106101d0576101d0611af2565b6020026020010151905060006101f88260000151836020015184604001518560600151610bac565b608083015190915081018181101561026c576040517f08c379a000000000000000000000000000000000000000000000000000000000815260206004820152601e60248201527f556e6976657273616c546f6b656e526f757465723a204f564552464c4f570000604482015260640161017b565b608090920191909152506001016101b3565b506000606060005b835181101561064c5760008482815181106102a3576102a3611af2565b60200260200101519050600080600090505b825151811015610565576000836000015182815181106102d7576102d7611af2565b602002602001015190506000816000015190506000600182146102fa57336102fc565b305b90506000808460c0015103610316575060a08301516103df565b60018460c00151036103415761033a82856040015186606001518760800151610bac565b905061034b565b5060c08301518801515b8360a001518111156103df576040517f08c379a000000000000000000000000000000000000000000000000000000000815260206004820152602c60248201527f556e6976657273616c546f6b656e526f757465723a204558434553534956455f60448201527f494e5055545f414d4f554e540000000000000000000000000000000000000000606482015260840161017b565b600283036103f257945061055d92505050565b8215806103ff5750600183145b1561042b5761042282856020015186604001518760600151886080015186610907565b5050505061055d565b600483036104f95760208085015160408087015160608089015160808a015193517fffffffffffffffffffffffffffffffffffffffff00000000000000000000000033841b81169782019790975294821b8616603486015260488501929092521b9092166068820152607c810191909152600090609c01604080517fffffffffffffffffffffffffffffffffffffffffffffffffffffffffffffffe0818403018152918152815160209283012060009081529182905290208054909201909155506001985061055d92505050565b60088303610558576105398460200151856040015186606001517fffffffffffffffffffffffffffffffffffffffffffffffffffffffffffffffff610e54565b610553333086604001518760600151886080015186610907565b600199505b505050505b6001016102b5565b5060608201515115610642576020820151600416156105965760608201518051610590919086610f6f565b60608301525b600080836040015173ffffffffffffffffffffffffffffffffffffffff168385606001516040516105c79190611b21565b60006040518083038185875af1925050503d8060008114610604576040519150601f19603f3d011682016040523d82523d6000602084013e610609565b606091505b50915091508115801561062157506020840151600116155b1561062e57805160208201fd5b60208401516002161561063f578095505b50505b5050600101610286565b5060005b845181101561073557600085828151811061066d5761066d611af2565b6020026020010151905060006106958260000151836020015184604001518560600151610bac565b9050816080015181101561072b576040517f08c379a000000000000000000000000000000000000000000000000000000000815260206004820152603060248201527f556e6976657273616c546f6b656e526f757465723a20494e535546464943494560448201527f4e545f4f55545055545f414d4f554e5400000000000000000000000000000000606482015260840161017b565b5050600101610650565b5081156108ef5760005b83518110156108ed57600084828151811061075c5761075c611af2565b6020026020010151905060005b8151518110156108e35760008260000151828151811061078b5761078b611af2565b60200260200101519050600481600001510361085a57602080820151604080840151606080860151608087015193517fffffffffffffffffffffffffffffffffffffffff00000000000000000000000033841b81169782019790975294821b8616603486015260488501929092521b9092166068820152607c810191909152600090609c01604080517fffffffffffffffffffffffffffffffffffffffffffffffffffffffffffffffe08184030181529181528151602092830120600090815291829052812055506108db9050565b80517ffffffffffffffffffffffffffffffffffffffffffffffffffffffffffffffff8016108d95761089b8160200151826040015183606001516000610e54565b60006108b530836040015184606001518560800151610bac565b905080156108d7576108d7303384604001518560600151866080015186610907565b505b505b600101610769565b505060010161073f565b505b478015610900576109003382610ff3565b5050505050565b83601403610948573073ffffffffffffffffffffffffffffffffffffffff87160361093c57610937838683611102565b610ba4565b61093783878784611291565b83610483036109fc576040517ff242432a00000000000000000000000000000000000000000000000000000000815273ffffffffffffffffffffffffffffffffffffffff87811660048301528681166024830152604482018490526064820183905260a06084830152600060a483015284169063f242432a9060c4015b600060405180830381600087803b1580156109df57600080fd5b505af11580156109f3573d6000803e3d6000fd5b50505050610ba4565b836102d103610a68576040517f42842e0e00000000000000000000000000000000000000000000000000000000815273ffffffffffffffffffffffffffffffffffffffff87811660048301528681166024830152604482018490528416906342842e0e906064016109c5565b83610b1c5773ffffffffffffffffffffffffffffffffffffffff86163014610b12576040517f08c379a000000000000000000000000000000000000000000000000000000000815260206004820152602860248201527f556e6976657273616c546f6b656e526f757465723a20494e56414c49445f455460448201527f485f53454e444552000000000000000000000000000000000000000000000000606482015260840161017b565b6109378582610ff3565b6040517f08c379a000000000000000000000000000000000000000000000000000000000815260206004820152602160248201527f556e6976657273616c546f6b656e526f757465723a20494e56414c49445f454960448201527f5000000000000000000000000000000000000000000000000000000000000000606482015260840161017b565b505050505050565b600083601403610c4e576040517f70a0823100000000000000000000000000000000000000000000000000000000815273ffffffffffffffffffffffffffffffffffffffff86811660048301528416906370a08231906024015b602060405180830381865afa158015610c23573d6000803e3d6000fd5b505050506040513d601f19601f82011682018060405250810190610c479190611b50565b9050610e4c565b8361048303610cb0576040517efdd58e00000000000000000000000000000000000000000000000000000000815273ffffffffffffffffffffffffffffffffffffffff86811660048301526024820184905284169062fdd58e90604401610c06565b836102d103610e2d577ff2b78321daf989e73321bb72cbe2a5fab2d75ae52e3240a42772118067c318108201610d34576040517f70a0823100000000000000000000000000000000000000000000000000000000815273ffffffffffffffffffffffffffffffffffffffff86811660048301528416906370a0823190602401610c06565b6040517f6352211e0000000000000000000000000000000000000000000000000000000081526004810183905273ffffffffffffffffffffffffffffffffffffffff841690636352211e90602401602060405180830381865afa925050508015610dd9575060408051601f3d9081017fffffffffffffffffffffffffffffffffffffffffffffffffffffffffffffffe0168201909252610dd691810190611b69565b60015b610de557506000610e4c565b8573ffffffffffffffffffffffffffffffffffffffff168173ffffffffffffffffffffffffffffffffffffffff1614610e1f576000610e22565b60015b60ff16915050610e4c565b83610b1c575073ffffffffffffffffffffffffffffffffffffffff8416315b949350505050565b82601403610e6c57610e67828583611428565b610f69565b8261048303610f04576040517fa22cb46500000000000000000000000000000000000000000000000000000000815273ffffffffffffffffffffffffffffffffffffffff8581166004830152821515602483015283169063a22cb465906044015b600060405180830381600087803b158015610ee757600080fd5b505af1158015610efb573d6000803e3d6000fd5b50505050610f69565b826102d103610b1c576040517fa22cb46500000000000000000000000000000000000000000000000000000000815273ffffffffffffffffffffffffffffffffffffffff8581166004830152821515602483015283169063a22cb46590604401610ecd565b50505050565b6060604051905082815260208101838101602086015b81831015610f9d578051835260209283019201610f85565b50835183518101845294507fffffffffffffffffffffffffffffffffffffffffffffffffffffffffffffffe0810191508401835b81831015610fe9578051835260209283019201610fd1565b5050509392505050565b6040805160008082526020820190925273ffffffffffffffffffffffffffffffffffffffff841690839060405161102a9190611b21565b60006040518083038185875af1925050503d8060008114611067576040519150601f19603f3d011682016040523d82523d6000602084013e61106c565b606091505b50509050806110fd576040517f08c379a000000000000000000000000000000000000000000000000000000000815260206004820152603460248201527f5472616e7366657248656c7065723a3a736166655472616e736665724554483a60448201527f20455448207472616e73666572206661696c6564000000000000000000000000606482015260840161017b565b505050565b6040805173ffffffffffffffffffffffffffffffffffffffff8481166024830152604480830185905283518084039091018152606490920183526020820180517bffffffffffffffffffffffffffffffffffffffffffffffffffffffff167fa9059cbb0000000000000000000000000000000000000000000000000000000017905291516000928392908716916111999190611b21565b6000604051808303816000865af19150503d80600081146111d6576040519150601f19603f3d011682016040523d82523d6000602084013e6111db565b606091505b50915091508180156112055750805115806112055750808060200190518101906112059190611b8d565b610900576040517f08c379a000000000000000000000000000000000000000000000000000000000815260206004820152602d60248201527f5472616e7366657248656c7065723a3a736166655472616e736665723a20747260448201527f616e73666572206661696c656400000000000000000000000000000000000000606482015260840161017b565b6040805173ffffffffffffffffffffffffffffffffffffffff85811660248301528481166044830152606480830185905283518084039091018152608490920183526020820180517bffffffffffffffffffffffffffffffffffffffffffffffffffffffff167f23b872dd0000000000000000000000000000000000000000000000000000000017905291516000928392908816916113309190611b21565b6000604051808303816000865af19150503d806000811461136d576040519150601f19603f3d011682016040523d82523d6000602084013e611372565b606091505b509150915081801561139c57508051158061139c57508080602001905181019061139c9190611b8d565b610ba4576040517f08c379a000000000000000000000000000000000000000000000000000000000815260206004820152603160248201527f5472616e7366657248656c7065723a3a7472616e7366657246726f6d3a20747260448201527f616e7366657246726f6d206661696c6564000000000000000000000000000000606482015260840161017b565b6040805173ffffffffffffffffffffffffffffffffffffffff8481166024830152604480830185905283518084039091018152606490920183526020820180517bffffffffffffffffffffffffffffffffffffffffffffffffffffffff167f095ea7b30000000000000000000000000000000000000000000000000000000017905291516000928392908716916114bf9190611b21565b6000604051808303816000865af19150503d80600081146114fc576040519150601f19603f3d011682016040523d82523d6000602084013e611501565b606091505b509150915081801561152b57508051158061152b57508080602001905181019061152b9190611b8d565b610900576040517f08c379a000000000000000000000000000000000000000000000000000000000815260206004820152602b60248201527f5472616e7366657248656c7065723a3a73616665417070726f76653a2061707060448201527f726f7665206661696c6564000000000000000000000000000000000000000000606482015260840161017b565b73ffffffffffffffffffffffffffffffffffffffff811681146115d957600080fd5b50565b80356115e7816115b7565b919050565b60008060008060008060c0878903121561160557600080fd5b8635611610816115b7565b95506020870135611620816115b7565b9450604087013593506060870135611637816115b7565b9598949750929560808101359460a0909101359350915050565b7f4e487b7100000000000000000000000000000000000000000000000000000000600052604160045260246000fd5b6040516080810167ffffffffffffffff811182821017156116a3576116a3611651565b60405290565b60405160e0810167ffffffffffffffff811182821017156116a3576116a3611651565b60405160a0810167ffffffffffffffff811182821017156116a3576116a3611651565b604051601f82017fffffffffffffffffffffffffffffffffffffffffffffffffffffffffffffffe016810167ffffffffffffffff8111828210171561173657611736611651565b604052919050565b600067ffffffffffffffff82111561175857611758611651565b5060051b60200190565b600082601f83011261177357600080fd5b813567ffffffffffffffff81111561178d5761178d611651565b6117be60207fffffffffffffffffffffffffffffffffffffffffffffffffffffffffffffffe0601f840116016116ef565b8181528460208386010111156117d357600080fd5b816020850160208301376000918101602001919091529392505050565b600082601f83011261180157600080fd5b61181361180e833561173e565b6116ef565b82358082526020808301929160051b8501018581111561183257600080fd5b602085015b818110156119db5767ffffffffffffffff808235111561185657600080fd5b8135870160807fffffffffffffffffffffffffffffffffffffffffffffffffffffffffffffffe0828b0301121561188c57600080fd5b611894611680565b82602083013511156118a557600080fd5b602082013582018a603f8201126118bb57600080fd5b60208101356118cc61180e8261173e565b81815260e090910282016040019060208101908d8311156118ec57600080fd5b6040840193505b828410156119825760e0848f03121561190b57600080fd5b6119136116a9565b8435815261192460208601356115b7565b602085013560208201526040850135604082015261194560608601356115b7565b606085013560608201526080850135608082015260a085013560a082015260c085013560c08201528083525060208201915060e0840193506118f3565b84525050506040820135602082015261199d606083016115dc565b604082015282608083013511156119b357600080fd5b6119c68a60206080850135850101611762565b60608201528652505060209384019301611837565b509095945050505050565b60008060408084860312156119fa57600080fd5b833567ffffffffffffffff80821115611a1257600080fd5b818601915086601f830112611a2657600080fd5b81356020611a3661180e8361173e565b82815260a0928302850182019282820191908b851115611a5557600080fd5b958301955b84871015611ac35780878d031215611a725760008081fd5b611a7a6116cc565b8735611a85816115b7565b8152878501358582015288880135611a9c816115b7565b818a0152606088810135908201526080808901359082015283529586019591830191611a5a565b5097505087013593505080831115611ada57600080fd5b5050611ae8858286016117f0565b9150509250929050565b7f4e487b7100000000000000000000000000000000000000000000000000000000600052603260045260246000fd5b6000825160005b81811015611b425760208186018101518583015201611b28565b506000920191825250919050565b600060208284031215611b6257600080fd5b5051919050565b600060208284031215611b7b57600080fd5b8151611b86816115b7565b9392505050565b600060208284031215611b9f57600080fd5b81518015158114611b8657600080fdfea26469706673582212205b037c86ac0bf1f3ec629338233a7939fae6e969a446e6b7c49df5e2346a15ba64736f6c63430008120033",
  "linkReferences": {},
  "deployedLinkReferences": {}
}