{
  "_format": "hh-sol-artifact-1",
  "contractName": "UniversalTokenRouter",
  "sourceName": "contracts/UniversalTokenRouter.sol",
  "abi": [
    {
      "inputs": [
        {
          "internalType": "bytes",
          "name": "payment",
          "type": "bytes"
        },
        {
          "internalType": "uint256",
          "name": "amount",
          "type": "uint256"
        }
      ],
      "name": "discard",
      "outputs": [],
      "stateMutability": "nonpayable",
      "type": "function"
    },
    {
      "inputs": [
        {
          "components": [
            {
              "internalType": "address",
              "name": "recipient",
              "type": "address"
            },
            {
              "internalType": "uint256",
              "name": "eip",
              "type": "uint256"
            },
            {
              "internalType": "address",
              "name": "token",
              "type": "address"
            },
            {
              "internalType": "uint256",
              "name": "id",
              "type": "uint256"
            },
            {
              "internalType": "uint256",
              "name": "amountOutMin",
              "type": "uint256"
            }
          ],
          "internalType": "struct Output[]",
          "name": "outputs",
          "type": "tuple[]"
        },
        {
          "components": [
            {
              "components": [
                {
                  "internalType": "uint256",
                  "name": "mode",
                  "type": "uint256"
                },
                {
                  "internalType": "address",
                  "name": "recipient",
                  "type": "address"
                },
                {
                  "internalType": "uint256",
                  "name": "eip",
                  "type": "uint256"
                },
                {
                  "internalType": "address",
                  "name": "token",
                  "type": "address"
                },
                {
                  "internalType": "uint256",
                  "name": "id",
                  "type": "uint256"
                },
                {
                  "internalType": "uint256",
                  "name": "amountIn",
                  "type": "uint256"
                }
              ],
              "internalType": "struct Input[]",
              "name": "inputs",
              "type": "tuple[]"
            },
            {
              "internalType": "address",
              "name": "code",
              "type": "address"
            },
            {
              "internalType": "bytes",
              "name": "data",
              "type": "bytes"
            }
          ],
          "internalType": "struct Action[]",
          "name": "actions",
          "type": "tuple[]"
        }
      ],
      "name": "exec",
      "outputs": [],
      "stateMutability": "payable",
      "type": "function"
    },
    {
      "inputs": [
        {
          "internalType": "bytes",
          "name": "payment",
          "type": "bytes"
        },
        {
          "internalType": "uint256",
          "name": "amount",
          "type": "uint256"
        }
      ],
      "name": "pay",
      "outputs": [],
      "stateMutability": "nonpayable",
      "type": "function"
    },
    {
      "inputs": [
        {
          "internalType": "bytes4",
          "name": "interfaceId",
          "type": "bytes4"
        }
      ],
      "name": "supportsInterface",
      "outputs": [
        {
          "internalType": "bool",
          "name": "",
          "type": "bool"
        }
      ],
      "stateMutability": "view",
      "type": "function"
    },
    {
      "stateMutability": "payable",
      "type": "receive"
    }
  ],
  "bytecode": "0x608060405234801561001057600080fd5b50611568806100206000396000f3fe6080604052600436106100435760003560e01c806301ffc9a71461004f578063715ef7f914610083578063c175dd37146100a5578063f02c9eab146100c557600080fd5b3661004a57005b600080fd5b34801561005b57600080fd5b5061006f61006a366004610ed1565b6100d8565b604051901515815260200160405180910390f35b34801561008f57600080fd5b506100a361009e36600461108e565b610171565b005b3480156100b157600080fd5b506100a36100c036600461108e565b6101b8565b6100a36100d336600461130f565b61027f565b60007fffffffff0000000000000000000000000000000000000000000000000000000082167f4007b46500000000000000000000000000000000000000000000000000000000148061016b57507f01ffc9a7000000000000000000000000000000000000000000000000000000007fffffffff000000000000000000000000000000000000000000000000000000008316145b92915050565b61017b82826101b8565b600080600080600086806020019051810190610197919061141b565b945094509450945094506101af85858585858b6107b6565b50505050505050565b8151602080840191909120600081815291829052604090912054821115610266576040517f08c379a000000000000000000000000000000000000000000000000000000000815260206004820152602a60248201527f556e6976657273616c546f6b656e526f757465723a20494e535546464943494560448201527f4e545f5041594d454e540000000000000000000000000000000000000000000060648201526084015b60405180910390fd5b6000908152602081905260409020805491909103905550565b60005b825181101561036057600083828151811061029f5761029f61147c565b6020026020010151905060006102b48261097f565b608083015190915081018181101561034e576040517f08c379a000000000000000000000000000000000000000000000000000000000815260206004820152602d60248201527f556e6976657273616c546f6b656e526f757465723a204f55545055545f42414c60448201527f414e43455f4f564552464c4f5700000000000000000000000000000000000000606482015260840161025d565b60809092019190915250600101610282565b503360005b82518110156106c85760008382815181106103825761038261147c565b60200260200101519050600080600090505b825151811015610555576000836000015182815181106103b6576103b661147c565b60200260200101519050600081600001519050600281036103dd578160a00151935061054b565b8061049457600087836020015184604001518560600151866080015160405160200161044895949392919073ffffffffffffffffffffffffffffffffffffffff9586168152938516602085015260408401929092529092166060820152608081019190915260a00190565b604080517fffffffffffffffffffffffffffffffffffffffffffffffffffffffffffffffe0818403018152918152815160209283012060a086015160009182529281905220555061054b565b600181036104c3576104be8783602001518460400151856060015186608001518760a001516107b6565b61054b565b6040517f08c379a000000000000000000000000000000000000000000000000000000000815260206004820152602260248201527f556e6976657273616c546f6b656e526f757465723a20494e56414c49445f4d4f60448201527f4445000000000000000000000000000000000000000000000000000000000000606482015260840161025d565b5050600101610394565b50604082015151156105e957600080836020015173ffffffffffffffffffffffffffffffffffffffff1683856040015160405161059291906114ab565b60006040518083038185875af1925050503d80600081146105cf576040519150601f19603f3d011682016040523d82523d6000602084013e6105d4565b606091505b5091509150816105e657805160208201fd5b50505b60005b8251518110156106ba5760008360000151828151811061060e5761060e61147c565b6020026020010151905060008160000151036106b157602081810151604080840151606080860151608087015184517fffffffffffffffffffffffffffffffffffffffff0000000000000000000000008e851b8116828a015296841b871660348201526048810194909452911b9093166068820152607c8082019390935281518082039093018352609c0181528151918301919091206000908152918290528120555b506001016105ec565b505050806001019050610365565b504780156106da576106da8282610c2b565b60005b84518110156107af5760008582815181106106fa576106fa61147c565b60200260200101519050600061070f8261097f565b905081608001518110156107a5576040517f08c379a000000000000000000000000000000000000000000000000000000000815260206004820152603060248201527f556e6976657273616c546f6b656e526f757465723a20494e535546464943494560448201527f4e545f4f55545055545f414d4f554e5400000000000000000000000000000000606482015260840161025d565b50506001016106dd565b5050505050565b836014036107cf576107ca83878784610d3a565b610977565b8361048303610883576040517ff242432a00000000000000000000000000000000000000000000000000000000815273ffffffffffffffffffffffffffffffffffffffff87811660048301528681166024830152604482018490526064820183905260a06084830152600060a483015284169063f242432a9060c4015b600060405180830381600087803b15801561086657600080fd5b505af115801561087a573d6000803e3d6000fd5b50505050610977565b836102d1036108ef576040517f42842e0e00000000000000000000000000000000000000000000000000000000815273ffffffffffffffffffffffffffffffffffffffff87811660048301528681166024830152604482018490528416906342842e0e9060640161084c565b6040517f08c379a000000000000000000000000000000000000000000000000000000000815260206004820152602160248201527f556e6976657273616c546f6b656e526f757465723a20494e56414c49445f454960448201527f5000000000000000000000000000000000000000000000000000000000000000606482015260840161025d565b505050505050565b60208101516000906014819003610a2f57604083810151845191517f70a0823100000000000000000000000000000000000000000000000000000000815273ffffffffffffffffffffffffffffffffffffffff92831660048201529116906370a08231906024015b602060405180830381865afa158015610a04573d6000803e3d6000fd5b505050506040513d601f19601f82011682018060405250810190610a2891906114da565b9392505050565b8061048303610a9d576040838101518451606086015192517efdd58e00000000000000000000000000000000000000000000000000000000815273ffffffffffffffffffffffffffffffffffffffff91821660048201526024810193909352169062fdd58e906044016109e7565b806102d103610c095760608301517f0549972b314bb4225e5b334d0650d563c4e907124dcce9f2eae8c8b2d3d9d30d01610b2c57604083810151845191517f70a0823100000000000000000000000000000000000000000000000000000000815273ffffffffffffffffffffffffffffffffffffffff92831660048201529116906370a08231906024016109e7565b826040015173ffffffffffffffffffffffffffffffffffffffff16636352211e84606001516040518263ffffffff1660e01b8152600401610b6f91815260200190565b602060405180830381865afa925050508015610bc6575060408051601f3d9081017fffffffffffffffffffffffffffffffffffffffffffffffffffffffffffffffe0168201909252610bc3918101906114f3565b60015b610bd35750600092915050565b835173ffffffffffffffffffffffffffffffffffffffff828116911614610bfb576000610bfe565b60015b60ff16949350505050565b806108ef5750505173ffffffffffffffffffffffffffffffffffffffff163190565b6040805160008082526020820190925273ffffffffffffffffffffffffffffffffffffffff8416908390604051610c6291906114ab565b60006040518083038185875af1925050503d8060008114610c9f576040519150601f19603f3d011682016040523d82523d6000602084013e610ca4565b606091505b5050905080610d35576040517f08c379a000000000000000000000000000000000000000000000000000000000815260206004820152603460248201527f5472616e7366657248656c7065723a3a736166655472616e736665724554483a60448201527f20455448207472616e73666572206661696c6564000000000000000000000000606482015260840161025d565b505050565b6040805173ffffffffffffffffffffffffffffffffffffffff85811660248301528481166044830152606480830185905283518084039091018152608490920183526020820180517bffffffffffffffffffffffffffffffffffffffffffffffffffffffff167f23b872dd000000000000000000000000000000000000000000000000000000001790529151600092839290881691610dd991906114ab565b6000604051808303816000865af19150503d8060008114610e16576040519150601f19603f3d011682016040523d82523d6000602084013e610e1b565b606091505b5091509150818015610e45575080511580610e45575080806020019051810190610e459190611510565b610977576040517f08c379a000000000000000000000000000000000000000000000000000000000815260206004820152603160248201527f5472616e7366657248656c7065723a3a7472616e7366657246726f6d3a20747260448201527f616e7366657246726f6d206661696c6564000000000000000000000000000000606482015260840161025d565b600060208284031215610ee357600080fd5b81357fffffffff0000000000000000000000000000000000000000000000000000000081168114610a2857600080fd5b7f4e487b7100000000000000000000000000000000000000000000000000000000600052604160045260246000fd5b6040516060810167ffffffffffffffff81118282101715610f6557610f65610f13565b60405290565b60405160c0810167ffffffffffffffff81118282101715610f6557610f65610f13565b60405160a0810167ffffffffffffffff81118282101715610f6557610f65610f13565b604051601f82017fffffffffffffffffffffffffffffffffffffffffffffffffffffffffffffffe016810167ffffffffffffffff81118282101715610ff857610ff8610f13565b604052919050565b600082601f83011261101157600080fd5b813567ffffffffffffffff81111561102b5761102b610f13565b61105c60207fffffffffffffffffffffffffffffffffffffffffffffffffffffffffffffffe0601f84011601610fb1565b81815284602083860101111561107157600080fd5b816020850160208301376000918101602001919091529392505050565b600080604083850312156110a157600080fd5b823567ffffffffffffffff8111156110b857600080fd5b6110c485828601611000565b95602094909401359450505050565b600067ffffffffffffffff8211156110ed576110ed610f13565b5060051b60200190565b73ffffffffffffffffffffffffffffffffffffffff8116811461111957600080fd5b50565b8035611127816110f7565b919050565b600082601f83011261113d57600080fd5b61114f61114a83356110d3565b610fb1565b82358082526020808301929160051b8501018581111561116e57600080fd5b602085015b818110156113045767ffffffffffffffff808235111561119257600080fd5b8135870160607fffffffffffffffffffffffffffffffffffffffffffffffffffffffffffffffe0828b030112156111c857600080fd5b6111d0610f42565b82602083013511156111e157600080fd5b602082013582018a603f8201126111f757600080fd5b602081013561120861114a826110d3565b81815260c090910282016040019060208101908d83111561122857600080fd5b6040840193505b828410156112b45760c0848f03121561124757600080fd5b61124f610f6b565b8435815261126060208601356110f7565b602085013560208201526040850135604082015261128160608601356110f7565b606085013560608201526080850135608082015260a085013560a08201528083525060208201915060c08401935061122f565b8452506112c69150506040830161111c565b602082015282606083013511156112dc57600080fd5b6112ef8a60206060850135850101611000565b60408201528652505060209384019301611173565b509095945050505050565b600080604080848603121561132357600080fd5b833567ffffffffffffffff8082111561133b57600080fd5b818601915086601f83011261134f57600080fd5b8135602061135f61114a836110d3565b82815260a0928302850182019282820191908b85111561137e57600080fd5b958301955b848710156113ec5780878d03121561139b5760008081fd5b6113a3610f8e565b87356113ae816110f7565b81528785013585820152888801356113c5816110f7565b818a0152606088810135908201526080808901359082015283529586019591830191611383565b509750508701359350508083111561140357600080fd5b50506114118582860161112c565b9150509250929050565b600080600080600060a0868803121561143357600080fd5b855161143e816110f7565b602087015190955061144f816110f7565b604087015160608801519195509350611467816110f7565b80925050608086015190509295509295909350565b7f4e487b7100000000000000000000000000000000000000000000000000000000600052603260045260246000fd5b6000825160005b818110156114cc57602081860181015185830152016114b2565b506000920191825250919050565b6000602082840312156114ec57600080fd5b5051919050565b60006020828403121561150557600080fd5b8151610a28816110f7565b60006020828403121561152257600080fd5b81518015158114610a2857600080fdfea2646970667358221220ad96f7d801fd7288ea31461818da450b90fae9a1a1a6253af563f75b11aaedc064736f6c63430008140033",
  "linkReferences": {},
  "deployedLinkReferences": {}
}