{
  "_format": "hh-sol-artifact-1",
  "contractName": "UniversalTokenRouter",
  "sourceName": "contracts/UniversalTokenRouter.sol",
  "abi": [
    {
      "inputs": [
        {
          "components": [
            {
              "internalType": "uint256",
              "name": "output",
              "type": "uint256"
            },
            {
              "internalType": "address",
              "name": "code",
              "type": "address"
            },
            {
              "internalType": "bytes",
              "name": "data",
              "type": "bytes"
            },
            {
              "components": [
                {
                  "internalType": "uint256",
                  "name": "eip",
                  "type": "uint256"
                },
                {
                  "internalType": "address",
                  "name": "adr",
                  "type": "address"
                },
                {
                  "internalType": "uint256",
                  "name": "id",
                  "type": "uint256"
                },
                {
                  "internalType": "uint256",
                  "name": "amount",
                  "type": "uint256"
                },
                {
                  "internalType": "uint256",
                  "name": "offset",
                  "type": "uint256"
                },
                {
                  "internalType": "address",
                  "name": "recipient",
                  "type": "address"
                }
              ],
              "internalType": "struct Token[]",
              "name": "tokens",
              "type": "tuple[]"
            }
          ],
          "internalType": "struct Action[]",
          "name": "actions",
          "type": "tuple[]"
        }
      ],
      "name": "exec",
      "outputs": [],
      "stateMutability": "payable",
      "type": "function"
    }
  ],
  "bytecode": "0x608060405234801561001057600080fd5b50611493806100206000396000f3fe60806040526004361061001e5760003560e01c80632bcfc96114610023575b600080fd5b610036610031366004611013565b610038565b005b60008167ffffffffffffffff81111561005357610053611088565b60405190808252806020026020018201604052801561008657816020015b60608152602001906001900390816100715790505b50905060005b82811015610309578383828181106100a6576100a661109e565b90506020028101906100b891906110b4565b3515806100f657508383828181106100d2576100d261109e565b90506020028101906100e491906110b4565b6100f29060608101906110d4565b1590505b6103015783838281811061010c5761010c61109e565b905060200281019061011e91906110b4565b61012c9060608101906110d4565b905067ffffffffffffffff81111561014657610146611088565b60405190808252806020026020018201604052801561016f578160200160208202803683370190505b508282815181106101825761018261109e565b602002602001018190525060005b8282815181106101a2576101a261109e565b6020026020010151518110156102ff578484838181106101c4576101c461109e565b90506020028101906101d691906110b4565b6101e49060608101906110d4565b828181106101f4576101f461109e565b905060c00201608001356000036102f7576102bf85858481811061021a5761021a61109e565b905060200281019061022c91906110b4565b61023a9060608101906110d4565b8381811061024a5761024a61109e565b905060c002018036038101906102609190611223565b8686858181106102725761027261109e565b905060200281019061028491906110b4565b6102929060608101906110d4565b848181106102a2576102a261109e565b905060c0020160a00160208101906102ba9190611246565b6107c7565b8383815181106102d1576102d161109e565b602002602001015182815181106102ea576102ea61109e565b6020026020010181815250505b600101610190565b505b60010161008c565b506000606060005b848110156107ad57600086868381811061032d5761032d61109e565b905060200281019061033f91906110b4565b610348906112ed565b80519091506000036104fa57604081015151156103d757600081602001516001600160a01b0316826040015160405161038191906113ca565b6000604051808303816000865af19150503d80600081146103be576040519150601f19603f3d011682016040523d82523d6000602084013e6103c3565b606091505b5094509050806103d557835160208501fd5b505b60005b8160600151518110156104f4576000826060015182815181106103ff576103ff61109e565b6020026020010151905060208160800151106104ac576000610425868360800151015190565b905081606001518111156104a65760405162461bcd60e51b815260206004820152602c60248201527f556e6976657273616c546f6b656e526f757465723a204558434553534956455f60448201527f494e5055545f414d4f554e54000000000000000000000000000000000000000060648201526084015b60405180910390fd5b60608201525b80511580156104c6575060a08101516001600160a01b0316155b156104d757806060015195506104eb565b6060810151156104eb576104eb8133610a46565b506001016103da565b506107a4565b604081015151156106055760408101515160648110801590610542575060408201518101517fc752b293578350488711c09dc69805d9e70939d951cb2b8660ec3e5bde0a20b0145b8015610559575060408201518101601f1901516020145b156105765761057082604001516020830386610bd5565b60408301525b60008083602001516001600160a01b031687856040015160405161059a91906113ca565b60006040518083038185875af1925050503d80600081146105d7576040519150601f19603f3d011682016040523d82523d6000602084013e6105dc565b606091505b5091509150811580156105f0575083516002145b156105fd57805160208201fd5b600096505050505b60005b8160600151518110156107a25760008888858181106106295761062961109e565b905060200281019061063b91906110b4565b6106499060608101906110d4565b838181106106595761065961109e565b905060c0020180360381019061066f9190611223565b6080810151909150156106c557602081608001511061069a57608081015185015160608201526106b6565b80606001516000036106b6576106b081306107c7565b60608201525b6106c08130610a46565b610799565b60006106d5828360a001516107c7565b905060008886815181106106eb576106eb61109e565b602002602001015184815181106107045761070461109e565b602002602001015182039050826060015181101580156107245750818111155b6107965760405162461bcd60e51b815260206004820152603060248201527f556e6976657273616c546f6b656e526f757465723a20494e535546464943494560448201527f4e545f4f55545055545f414d4f554e5400000000000000000000000000000000606482015260840161049d565b50505b50600101610608565b505b50600101610311565b504780156107bf576107bf3382610c4c565b505050505050565b815160009060140361084b5760208301516040516370a0823160e01b81526001600160a01b038481166004830152909116906370a08231906024015b602060405180830381865afa158015610820573d6000803e3d6000fd5b505050506040513d601f19601f820116820180604052508101906108449190611405565b9050610a40565b8251610483036108ac57602083015160408085015190517efdd58e0000000000000000000000000000000000000000000000000000000081526001600160a01b038581166004830152602482019290925291169062fdd58e90604401610803565b82516102d1036109b85760408301517f3a8612d0e89a6bdc753f6815220b80a99ad812d6d7c319513f8b74f2bf5bf589016109155760208301516040516370a0823160e01b81526001600160a01b038481166004830152909116906370a0823190602401610803565b816001600160a01b031683602001516001600160a01b0316636352211e85604001516040518263ffffffff1660e01b815260040161095591815260200190565b602060405180830381865afa158015610972573d6000803e3d6000fd5b505050506040513d601f19601f82011682018060405250810190610996919061141e565b6001600160a01b0316146109ab5760006109ae565b60015b60ff169050610a40565b82516000036109d257506001600160a01b03811631610a40565b60405162461bcd60e51b815260206004820152602160248201527f556e6976657273616c546f6b656e526f757465723a20494e56414c49445f454960448201527f5000000000000000000000000000000000000000000000000000000000000000606482015260840161049d565b92915050565b8151601403610a9257306001600160a01b03821603610a7a57610a7682602001518360a001518460600151610d34565b5050565b610a768260200151828460a001518560600151610ea3565b815161048303610b4a57602082015160a080840151604080860151606087015191517ff242432a0000000000000000000000000000000000000000000000000000000081526001600160a01b0387811660048301529384166024820152604481019190915260648101919091526084810192909252600060a48301529091169063f242432a9060c4015b600060405180830381600087803b158015610b3657600080fd5b505af11580156107bf573d6000803e3d6000fd5b81516102d103610bba57602082015160a083015160408085015190517f42842e0e0000000000000000000000000000000000000000000000000000000081526001600160a01b038581166004830152928316602482015260448101919091529116906342842e0e90606401610b1c565b81516000036109d257610a768260a001518360600151610c4c565b6060604051905082815260208101838101602086015b81831015610c03578051835260209283019201610beb565b5083518351810184529450601f19810191508401835b81831015610c31578051835260209283019201610c19565b50601f19601f87518701158301011660405250509392505050565b604080516000808252602082019092526001600160a01b038416908390604051610c7691906113ca565b60006040518083038185875af1925050503d8060008114610cb3576040519150601f19603f3d011682016040523d82523d6000602084013e610cb8565b606091505b5050905080610d2f5760405162461bcd60e51b815260206004820152603460248201527f5472616e7366657248656c7065723a3a736166655472616e736665724554483a60448201527f20455448207472616e73666572206661696c6564000000000000000000000000606482015260840161049d565b505050565b604080516001600160a01b038481166024830152604480830185905283518084039091018152606490920183526020820180517bffffffffffffffffffffffffffffffffffffffffffffffffffffffff167fa9059cbb000000000000000000000000000000000000000000000000000000001790529151600092839290871691610dbe91906113ca565b6000604051808303816000865af19150503d8060008114610dfb576040519150601f19603f3d011682016040523d82523d6000602084013e610e00565b606091505b5091509150818015610e2a575080511580610e2a575080806020019051810190610e2a919061143b565b610e9c5760405162461bcd60e51b815260206004820152602d60248201527f5472616e7366657248656c7065723a3a736166655472616e736665723a20747260448201527f616e73666572206661696c656400000000000000000000000000000000000000606482015260840161049d565b5050505050565b604080516001600160a01b0385811660248301528481166044830152606480830185905283518084039091018152608490920183526020820180517bffffffffffffffffffffffffffffffffffffffffffffffffffffffff167f23b872dd000000000000000000000000000000000000000000000000000000001790529151600092839290881691610f3591906113ca565b6000604051808303816000865af19150503d8060008114610f72576040519150601f19603f3d011682016040523d82523d6000602084013e610f77565b606091505b5091509150818015610fa1575080511580610fa1575080806020019051810190610fa1919061143b565b6107bf5760405162461bcd60e51b815260206004820152603160248201527f5472616e7366657248656c7065723a3a7472616e7366657246726f6d3a20747260448201527f616e7366657246726f6d206661696c6564000000000000000000000000000000606482015260840161049d565b6000806020838503121561102657600080fd5b823567ffffffffffffffff8082111561103e57600080fd5b818501915085601f83011261105257600080fd5b81358181111561106157600080fd5b8660208260051b850101111561107657600080fd5b60209290920196919550909350505050565b634e487b7160e01b600052604160045260246000fd5b634e487b7160e01b600052603260045260246000fd5b60008235607e198336030181126110ca57600080fd5b9190910192915050565b6000808335601e198436030181126110eb57600080fd5b83018035915067ffffffffffffffff82111561110657600080fd5b602001915060c08102360382131561111d57600080fd5b9250929050565b6040516080810167ffffffffffffffff8111828210171561114757611147611088565b60405290565b604051601f8201601f1916810167ffffffffffffffff8111828210171561117657611176611088565b604052919050565b6001600160a01b038116811461119357600080fd5b50565b600060c082840312156111a857600080fd5b60405160c0810181811067ffffffffffffffff821117156111cb576111cb611088565b6040528235815290508060208301356111e38161117e565b8060208301525060408301356040820152606083013560608201526080830135608082015260a08301356112168161117e565b60a0919091015292915050565b600060c0828403121561123557600080fd5b61123f8383611196565b9392505050565b60006020828403121561125857600080fd5b813561123f8161117e565b600082601f83011261127457600080fd5b8135602067ffffffffffffffff82111561129057611290611088565b61129e818360051b0161114d565b82815260c092830285018201928282019190878511156112bd57600080fd5b8387015b858110156112e0576112d38982611196565b84529284019281016112c1565b5090979650505050505050565b6000608082360312156112ff57600080fd5b611307611124565b8235815260208084013561131a8161117e565b82820152604084013567ffffffffffffffff8082111561133957600080fd5b9085019036601f83011261134c57600080fd5b81358181111561135e5761135e611088565b611370601f8201601f1916850161114d565b818152368583860101111561138457600080fd5b81858501868301376000858383010152806040870152505060608601359250808311156113b057600080fd5b50506113be36828601611263565b60608301525092915050565b6000825160005b818110156113eb57602081860181015185830152016113d1565b818111156113fa576000828501525b509190910192915050565b60006020828403121561141757600080fd5b5051919050565b60006020828403121561143057600080fd5b815161123f8161117e565b60006020828403121561144d57600080fd5b8151801515811461123f57600080fdfea2646970667358221220ba0d265b4b48b2ffe8714719fcf2f94fa6b66d81fa47471cb821e4b4eb58f6a864736f6c634300080d0033",
  "linkReferences": {},
  "deployedLinkReferences": {}
}