{
  "_format": "hh-sol-artifact-1",
  "contractName": "UniversalTokenRouter",
  "sourceName": "contracts/UniversalTokenRouter.sol",
  "abi": [
    {
      "inputs": [
        {
          "internalType": "address",
          "name": "sender",
          "type": "address"
        },
        {
          "internalType": "uint256",
          "name": "eip",
          "type": "uint256"
        },
        {
          "internalType": "address",
          "name": "token",
          "type": "address"
        },
        {
          "internalType": "uint256",
          "name": "id",
          "type": "uint256"
        },
        {
          "internalType": "uint256",
          "name": "amount",
          "type": "uint256"
        }
      ],
      "name": "discard",
      "outputs": [],
      "stateMutability": "nonpayable",
      "type": "function"
    },
    {
      "inputs": [
        {
          "components": [
            {
              "internalType": "address",
              "name": "recipient",
              "type": "address"
            },
            {
              "internalType": "uint256",
              "name": "eip",
              "type": "uint256"
            },
            {
              "internalType": "address",
              "name": "token",
              "type": "address"
            },
            {
              "internalType": "uint256",
              "name": "id",
              "type": "uint256"
            },
            {
              "internalType": "uint256",
              "name": "amountOutMin",
              "type": "uint256"
            }
          ],
          "internalType": "struct Output[]",
          "name": "outputs",
          "type": "tuple[]"
        },
        {
          "components": [
            {
              "components": [
                {
                  "internalType": "uint256",
                  "name": "mode",
                  "type": "uint256"
                },
                {
                  "internalType": "address",
                  "name": "recipient",
                  "type": "address"
                },
                {
                  "internalType": "uint256",
                  "name": "eip",
                  "type": "uint256"
                },
                {
                  "internalType": "address",
                  "name": "token",
                  "type": "address"
                },
                {
                  "internalType": "uint256",
                  "name": "id",
                  "type": "uint256"
                },
                {
                  "internalType": "uint256",
                  "name": "amountIn",
                  "type": "uint256"
                }
              ],
              "internalType": "struct Input[]",
              "name": "inputs",
              "type": "tuple[]"
            },
            {
              "internalType": "address",
              "name": "code",
              "type": "address"
            },
            {
              "internalType": "bytes",
              "name": "data",
              "type": "bytes"
            }
          ],
          "internalType": "struct Action[]",
          "name": "actions",
          "type": "tuple[]"
        }
      ],
      "name": "exec",
      "outputs": [],
      "stateMutability": "payable",
      "type": "function"
    },
    {
      "inputs": [
        {
          "internalType": "address",
          "name": "sender",
          "type": "address"
        },
        {
          "internalType": "address",
          "name": "recipient",
          "type": "address"
        },
        {
          "internalType": "uint256",
          "name": "eip",
          "type": "uint256"
        },
        {
          "internalType": "address",
          "name": "token",
          "type": "address"
        },
        {
          "internalType": "uint256",
          "name": "id",
          "type": "uint256"
        },
        {
          "internalType": "uint256",
          "name": "amount",
          "type": "uint256"
        }
      ],
      "name": "pay",
      "outputs": [],
      "stateMutability": "nonpayable",
      "type": "function"
    },
    {
      "inputs": [
        {
          "internalType": "bytes4",
          "name": "interfaceId",
          "type": "bytes4"
        }
      ],
      "name": "supportsInterface",
      "outputs": [
        {
          "internalType": "bool",
          "name": "",
          "type": "bool"
        }
      ],
      "stateMutability": "view",
      "type": "function"
    },
    {
      "stateMutability": "payable",
      "type": "receive"
    }
  ],
  "bytecode": "0x608060405234801561001057600080fd5b506115a8806100206000396000f3fe6080604052600436106100435760003560e01c806301ffc9a71461004f57806303886f3c146100835780631d2ec9ae146100a5578063f02c9eab146100c557600080fd5b3661004a57005b600080fd5b34801561005b57600080fd5b5061006f61006a366004610f00565b6100d8565b604051901515815260200160405180910390f35b34801561008f57600080fd5b506100a361009e366004610f77565b610171565b005b3480156100b157600080fd5b506100a36100c0366004610fdc565b610195565b6100a36100d33660046113b0565b6101aa565b60007fffffffff0000000000000000000000000000000000000000000000000000000082167fee8a383900000000000000000000000000000000000000000000000000000000148061016b57507f01ffc9a7000000000000000000000000000000000000000000000000000000007fffffffff000000000000000000000000000000000000000000000000000000008316145b92915050565b61017f8686868686866106bf565b61018d8686868686866107ed565b505050505050565b6101a38533868686866106bf565b5050505050565b60005b82518110156102905760008382815181106101ca576101ca6114bc565b6020026020010151905060006101df826109ae565b608083015190915081018181101561027e576040517f08c379a000000000000000000000000000000000000000000000000000000000815260206004820152602d60248201527f556e6976657273616c546f6b656e526f757465723a204f55545055545f42414c60448201527f414e43455f4f564552464c4f570000000000000000000000000000000000000060648201526084015b60405180910390fd5b608090920191909152506001016101ad565b503360005b82518110156105d85760008382815181106102b2576102b26114bc565b60200260200101519050600080600090505b825151811015610465576000836000015182815181106102e6576102e66114bc565b602090810291909101015180519091508061039057602082810151604080850151606080870151608088015184517fffffffffffffffffffffffffffffffffffffffff0000000000000000000000008f851b8116828a015296841b871660348201526048810194909452911b9093166068820152607c8082019390935281518082039093018352609c01815281519183019190912060a0850151600091825292819052205561045b565b600181036103bf576103ba8783602001518460400151856060015186608001518760a001516107ed565b61045b565b600281036103d3578160a00151935061045b565b6040517f08c379a000000000000000000000000000000000000000000000000000000000815260206004820152602260248201527f556e6976657273616c546f6b656e526f757465723a20494e56414c49445f4d4f60448201527f44450000000000000000000000000000000000000000000000000000000000006064820152608401610275565b50506001016102c4565b50604082015151156104f957600080836020015173ffffffffffffffffffffffffffffffffffffffff168385604001516040516104a291906114eb565b60006040518083038185875af1925050503d80600081146104df576040519150601f19603f3d011682016040523d82523d6000602084013e6104e4565b606091505b5091509150816104f657805160208201fd5b50505b60005b8251518110156105ca5760008360000151828151811061051e5761051e6114bc565b6020026020010151905060008160000151036105c157602081810151604080840151606080860151608087015184517fffffffffffffffffffffffffffffffffffffffff0000000000000000000000008e851b8116828a015296841b871660348201526048810194909452911b9093166068820152607c8082019390935281518082039093018352609c0181528151918301919091206000908152918290528120555b506001016104fc565b505050806001019050610295565b504780156105ea576105ea8282610c5a565b60005b84518110156101a357600085828151811061060a5761060a6114bc565b60200260200101519050600061061f826109ae565b905081608001518110156106b5576040517f08c379a000000000000000000000000000000000000000000000000000000000815260206004820152603060248201527f556e6976657273616c546f6b656e526f757465723a20494e535546464943494560448201527f4e545f4f55545055545f414d4f554e54000000000000000000000000000000006064820152608401610275565b50506001016105ed565b6040517fffffffffffffffffffffffffffffffffffffffff000000000000000000000000606088811b8216602084015287811b821660348401526048830187905285901b166068820152607c8101839052600090609c01604051602081830303815290604052805190602001209050816000808381526020019081526020016000205410156107d0576040517f08c379a000000000000000000000000000000000000000000000000000000000815260206004820152602a60248201527f556e6976657273616c546f6b656e526f757465723a20494e535546464943494560448201527f4e545f5041594d454e54000000000000000000000000000000000000000000006064820152608401610275565b600090815260208190526040902080549190910390555050505050565b836014036108065761080183878784610d69565b61018d565b83610483036108ba576040517ff242432a00000000000000000000000000000000000000000000000000000000815273ffffffffffffffffffffffffffffffffffffffff87811660048301528681166024830152604482018490526064820183905260a06084830152600060a483015284169063f242432a9060c4015b600060405180830381600087803b15801561089d57600080fd5b505af11580156108b1573d6000803e3d6000fd5b5050505061018d565b836102d103610926576040517f42842e0e00000000000000000000000000000000000000000000000000000000815273ffffffffffffffffffffffffffffffffffffffff87811660048301528681166024830152604482018490528416906342842e0e90606401610883565b6040517f08c379a000000000000000000000000000000000000000000000000000000000815260206004820152602160248201527f556e6976657273616c546f6b656e526f757465723a20494e56414c49445f454960448201527f50000000000000000000000000000000000000000000000000000000000000006064820152608401610275565b60208101516000906014819003610a5e57604083810151845191517f70a0823100000000000000000000000000000000000000000000000000000000815273ffffffffffffffffffffffffffffffffffffffff92831660048201529116906370a08231906024015b602060405180830381865afa158015610a33573d6000803e3d6000fd5b505050506040513d601f19601f82011682018060405250810190610a57919061151a565b9392505050565b8061048303610acc576040838101518451606086015192517efdd58e00000000000000000000000000000000000000000000000000000000815273ffffffffffffffffffffffffffffffffffffffff91821660048201526024810193909352169062fdd58e90604401610a16565b806102d103610c385760608301517f0549972b314bb4225e5b334d0650d563c4e907124dcce9f2eae8c8b2d3d9d30d01610b5b57604083810151845191517f70a0823100000000000000000000000000000000000000000000000000000000815273ffffffffffffffffffffffffffffffffffffffff92831660048201529116906370a0823190602401610a16565b826040015173ffffffffffffffffffffffffffffffffffffffff16636352211e84606001516040518263ffffffff1660e01b8152600401610b9e91815260200190565b602060405180830381865afa925050508015610bf5575060408051601f3d9081017fffffffffffffffffffffffffffffffffffffffffffffffffffffffffffffffe0168201909252610bf291810190611533565b60015b610c025750600092915050565b835173ffffffffffffffffffffffffffffffffffffffff828116911614610c2a576000610c2d565b60015b60ff16949350505050565b806109265750505173ffffffffffffffffffffffffffffffffffffffff163190565b6040805160008082526020820190925273ffffffffffffffffffffffffffffffffffffffff8416908390604051610c9191906114eb565b60006040518083038185875af1925050503d8060008114610cce576040519150601f19603f3d011682016040523d82523d6000602084013e610cd3565b606091505b5050905080610d64576040517f08c379a000000000000000000000000000000000000000000000000000000000815260206004820152603460248201527f5472616e7366657248656c7065723a3a736166655472616e736665724554483a60448201527f20455448207472616e73666572206661696c65640000000000000000000000006064820152608401610275565b505050565b6040805173ffffffffffffffffffffffffffffffffffffffff85811660248301528481166044830152606480830185905283518084039091018152608490920183526020820180517bffffffffffffffffffffffffffffffffffffffffffffffffffffffff167f23b872dd000000000000000000000000000000000000000000000000000000001790529151600092839290881691610e0891906114eb565b6000604051808303816000865af19150503d8060008114610e45576040519150601f19603f3d011682016040523d82523d6000602084013e610e4a565b606091505b5091509150818015610e74575080511580610e74575080806020019051810190610e749190611550565b61018d576040517f08c379a000000000000000000000000000000000000000000000000000000000815260206004820152603160248201527f5472616e7366657248656c7065723a3a7472616e7366657246726f6d3a20747260448201527f616e7366657246726f6d206661696c65640000000000000000000000000000006064820152608401610275565b600060208284031215610f1257600080fd5b81357fffffffff0000000000000000000000000000000000000000000000000000000081168114610a5757600080fd5b73ffffffffffffffffffffffffffffffffffffffff81168114610f6457600080fd5b50565b8035610f7281610f42565b919050565b60008060008060008060c08789031215610f9057600080fd5b8635610f9b81610f42565b95506020870135610fab81610f42565b9450604087013593506060870135610fc281610f42565b9598949750929560808101359460a0909101359350915050565b600080600080600060a08688031215610ff457600080fd5b8535610fff81610f42565b945060208601359350604086013561101681610f42565b94979396509394606081013594506080013592915050565b7f4e487b7100000000000000000000000000000000000000000000000000000000600052604160045260246000fd5b6040516060810167ffffffffffffffff811182821017156110805761108061102e565b60405290565b60405160c0810167ffffffffffffffff811182821017156110805761108061102e565b60405160a0810167ffffffffffffffff811182821017156110805761108061102e565b604051601f82017fffffffffffffffffffffffffffffffffffffffffffffffffffffffffffffffe016810167ffffffffffffffff811182821017156111135761111361102e565b604052919050565b600067ffffffffffffffff8211156111355761113561102e565b5060051b60200190565b600082601f83011261115057600080fd5b813567ffffffffffffffff81111561116a5761116a61102e565b61119b60207fffffffffffffffffffffffffffffffffffffffffffffffffffffffffffffffe0601f840116016110cc565b8181528460208386010111156111b057600080fd5b816020850160208301376000918101602001919091529392505050565b600082601f8301126111de57600080fd5b6111f06111eb833561111b565b6110cc565b82358082526020808301929160051b8501018581111561120f57600080fd5b602085015b818110156113a55767ffffffffffffffff808235111561123357600080fd5b8135870160607fffffffffffffffffffffffffffffffffffffffffffffffffffffffffffffffe0828b0301121561126957600080fd5b61127161105d565b826020830135111561128257600080fd5b602082013582018a603f82011261129857600080fd5b60208101356112a96111eb8261111b565b81815260c090910282016040019060208101908d8311156112c957600080fd5b6040840193505b828410156113555760c0848f0312156112e857600080fd5b6112f0611086565b843581526113016020860135610f42565b60208501356020820152604085013560408201526113226060860135610f42565b606085013560608201526080850135608082015260a085013560a08201528083525060208201915060c0840193506112d0565b84525061136791505060408301610f67565b6020820152826060830135111561137d57600080fd5b6113908a6020606085013585010161113f565b60408201528652505060209384019301611214565b509095945050505050565b60008060408084860312156113c457600080fd5b833567ffffffffffffffff808211156113dc57600080fd5b818601915086601f8301126113f057600080fd5b813560206114006111eb8361111b565b82815260a0928302850182019282820191908b85111561141f57600080fd5b958301955b8487101561148d5780878d03121561143c5760008081fd5b6114446110a9565b873561144f81610f42565b815287850135858201528888013561146681610f42565b818a0152606088810135908201526080808901359082015283529586019591830191611424565b50975050870135935050808311156114a457600080fd5b50506114b2858286016111cd565b9150509250929050565b7f4e487b7100000000000000000000000000000000000000000000000000000000600052603260045260246000fd5b6000825160005b8181101561150c57602081860181015185830152016114f2565b506000920191825250919050565b60006020828403121561152c57600080fd5b5051919050565b60006020828403121561154557600080fd5b8151610a5781610f42565b60006020828403121561156257600080fd5b81518015158114610a5757600080fdfea26469706673582212208778f3ce83ea88bfd5a9e13468b5ba2d298bd625d671f4a72d15ee4f39ca45a864736f6c63430008120033",
  "linkReferences": {},
  "deployedLinkReferences": {}
}