{
  "_format": "hh-sol-artifact-1",
  "contractName": "UniversalTokenRouter",
  "sourceName": "contracts/UniversalTokenRouter.sol",
  "abi": [
    {
      "inputs": [
        {
          "components": [
            {
              "internalType": "address",
              "name": "recipient",
              "type": "address"
            },
            {
              "internalType": "uint256",
              "name": "eip",
              "type": "uint256"
            },
            {
              "internalType": "address",
              "name": "token",
              "type": "address"
            },
            {
              "internalType": "uint256",
              "name": "id",
              "type": "uint256"
            },
            {
              "internalType": "uint256",
              "name": "amountOutMin",
              "type": "uint256"
            }
          ],
          "internalType": "struct Output[]",
          "name": "outputs",
          "type": "tuple[]"
        },
        {
          "components": [
            {
              "components": [
                {
                  "internalType": "uint256",
                  "name": "mode",
                  "type": "uint256"
                },
                {
                  "internalType": "address",
                  "name": "recipient",
                  "type": "address"
                },
                {
                  "internalType": "uint256",
                  "name": "eip",
                  "type": "uint256"
                },
                {
                  "internalType": "address",
                  "name": "token",
                  "type": "address"
                },
                {
                  "internalType": "uint256",
                  "name": "id",
                  "type": "uint256"
                },
                {
                  "internalType": "uint256",
                  "name": "amountInMax",
                  "type": "uint256"
                },
                {
                  "internalType": "uint256",
                  "name": "amountSource",
                  "type": "uint256"
                }
              ],
              "internalType": "struct Input[]",
              "name": "inputs",
              "type": "tuple[]"
            },
            {
              "internalType": "uint256",
              "name": "flags",
              "type": "uint256"
            },
            {
              "internalType": "address",
              "name": "code",
              "type": "address"
            },
            {
              "internalType": "bytes",
              "name": "data",
              "type": "bytes"
            }
          ],
          "internalType": "struct Action[]",
          "name": "actions",
          "type": "tuple[]"
        }
      ],
      "name": "exec",
      "outputs": [],
      "stateMutability": "payable",
      "type": "function"
    },
    {
      "inputs": [
        {
          "internalType": "address",
          "name": "sender",
          "type": "address"
        },
        {
          "internalType": "address",
          "name": "recipient",
          "type": "address"
        },
        {
          "internalType": "uint256",
          "name": "eip",
          "type": "uint256"
        },
        {
          "internalType": "address",
          "name": "token",
          "type": "address"
        },
        {
          "internalType": "uint256",
          "name": "id",
          "type": "uint256"
        },
        {
          "internalType": "uint256",
          "name": "amount",
          "type": "uint256"
        }
      ],
      "name": "transferToken",
      "outputs": [],
      "stateMutability": "nonpayable",
      "type": "function"
    },
    {
      "inputs": [
        {
          "components": [
            {
              "internalType": "address",
              "name": "sender",
              "type": "address"
            },
            {
              "internalType": "address",
              "name": "recipient",
              "type": "address"
            },
            {
              "internalType": "uint256",
              "name": "eip",
              "type": "uint256"
            },
            {
              "internalType": "address",
              "name": "token",
              "type": "address"
            },
            {
              "internalType": "uint256",
              "name": "id",
              "type": "uint256"
            },
            {
              "internalType": "uint256",
              "name": "amount",
              "type": "uint256"
            }
          ],
          "internalType": "struct Transfer[]",
          "name": "transfers",
          "type": "tuple[]"
        }
      ],
      "name": "transferTokens",
      "outputs": [],
      "stateMutability": "nonpayable",
      "type": "function"
    },
    {
      "stateMutability": "payable",
      "type": "receive"
    }
  ],
  "bytecode": "0x608060405234801561001057600080fd5b50611ded806100206000396000f3fe6080604052600436106100385760003560e01c80632a5baa7814610044578063e467e4e814610059578063e52e21221461007957600080fd5b3661003f57005b600080fd5b610057610052366004611aad565b610099565b005b34801561006557600080fd5b50610057610074366004611bb9565b6107f8565b34801561008557600080fd5b50610057610094366004611c1e565b610944565b60005b825181101561016c5760008382815181106100b9576100b9611c93565b6020026020010151905060006100e18260000151836020015184604001518560600151610a34565b608083015190915081018181101561015a576040517f08c379a000000000000000000000000000000000000000000000000000000000815260206004820152601e60248201527f556e6976657273616c546f6b656e526f757465723a204f564552464c4f57000060448201526064015b60405180910390fd5b6080909201919091525060010161009c565b506000606060005b835181101561053c57600084828151811061019157610191611c93565b60200260200101519050600080600090505b825151811015610455576000836000015182815181106101c5576101c5611c93565b602002602001015190506000816000015190506000600182146101e857336101ea565b305b90506000808460c0015103610204575060a08301516102cd565b60018460c001510361022f5761022882856040015186606001518760800151610a34565b9050610239565b5060c08301518801515b8360a001518111156102cd576040517f08c379a000000000000000000000000000000000000000000000000000000000815260206004820152602c60248201527f556e6976657273616c546f6b656e526f757465723a204558434553534956455f60448201527f494e5055545f414d4f554e5400000000000000000000000000000000000000006064820152608401610151565b600283036102e057945061044d92505050565b8215806102ed5750600183145b156103195761031082856020015186604001518760600151886080015186610d68565b5050505061044d565b61010083036103e85760208085015160408087015160608089015160808a015193517fffffffffffffffffffffffffffffffffffffffff00000000000000000000000033841b81169782019790975294821b8616603486015260488501929092521b9092166068820152607c810191909152600090609c01604080517fffffffffffffffffffffffffffffffffffffffffffffffffffffffffffffffe0818403018152918152815160209283012060009081529182905290208054909201909155506001985061044d92505050565b6102008303610448576104298460200151856040015186606001517fffffffffffffffffffffffffffffffffffffffffffffffffffffffffffffffff610f85565b610443333086604001518760600151886080015186610d68565b600199505b505050505b6001016101a3565b50606082015151156105325760208201516004161561048657606082015180516104809190866110a0565b60608301525b600080836040015173ffffffffffffffffffffffffffffffffffffffff168385606001516040516104b79190611cc2565b60006040518083038185875af1925050503d80600081146104f4576040519150601f19603f3d011682016040523d82523d6000602084013e6104f9565b606091505b50915091508115801561051157506020840151600116155b1561051e57805160208201fd5b60208401516002161561052f578095505b50505b5050600101610174565b5060005b845181101561062557600085828151811061055d5761055d611c93565b6020026020010151905060006105858260000151836020015184604001518560600151610a34565b9050816080015181101561061b576040517f08c379a000000000000000000000000000000000000000000000000000000000815260206004820152603060248201527f556e6976657273616c546f6b656e526f757465723a20494e535546464943494560448201527f4e545f4f55545055545f414d4f554e54000000000000000000000000000000006064820152608401610151565b5050600101610540565b5081156107e05760005b83518110156107de57600084828151811061064c5761064c611c93565b6020026020010151905060005b8151518110156107d45760008260000151828151811061067b5761067b611c93565b6020026020010151905061010081600001510361074b57602080820151604080840151606080860151608087015193517fffffffffffffffffffffffffffffffffffffffff00000000000000000000000033841b81169782019790975294821b8616603486015260488501929092521b9092166068820152607c810191909152600090609c01604080517fffffffffffffffffffffffffffffffffffffffffffffffffffffffffffffffe08184030181529181528151602092830120600090815291829052812055506107cc9050565b80517ffffffffffffffffffffffffffffffffffffffffffffffffffffffffffffffe00016107ca5761078c8160200151826040015183606001516000610f85565b60006107a630836040015184606001518560800151610a34565b905080156107c8576107c8303384604001518560600151866080015186610d68565b505b505b600101610659565b505060010161062f565b505b4780156107f1576107f13382611124565b5050505050565b6040517fffffffffffffffffffffffffffffffffffffffff000000000000000000000000606088811b8216602084015287811b821660348401526048830187905285901b166068820152607c8101839052600090609c0160405160208183030381529060405280519060200120905081600080838152602001908152602001600020541015610909576040517f08c379a000000000000000000000000000000000000000000000000000000000815260206004820152602c60248201527f556e6976657273616c546f6b656e526f757465723a20494e535546464943494560448201527f4e545f414c4c4f57414e434500000000000000000000000000000000000000006064820152608401610151565b60008181526020819052604081208054849290610927908490611cfd565b9091555061093b9050878787878787610d68565b50505050505050565b60005b81811015610a2f57610a2783838381811061096457610964611c93565b61097a92602060c0909202019081019150611d3b565b84848481811061098c5761098c611c93565b905060c0020160200160208101906109a49190611d3b565b8585858181106109b6576109b6611c93565b905060c00201604001358686868181106109d2576109d2611c93565b905060c0020160600160208101906109ea9190611d3b565b8787878181106109fc576109fc611c93565b905060c0020160800135888888818110610a1857610a18611c93565b905060c0020160a001356107f8565b600101610947565b505050565b600083601403610ad6576040517f70a0823100000000000000000000000000000000000000000000000000000000815273ffffffffffffffffffffffffffffffffffffffff86811660048301528416906370a08231906024015b602060405180830381865afa158015610aab573d6000803e3d6000fd5b505050506040513d601f19601f82011682018060405250810190610acf9190611d5f565b9050610d60565b8361048303610b38576040517efdd58e00000000000000000000000000000000000000000000000000000000815273ffffffffffffffffffffffffffffffffffffffff86811660048301526024820184905284169062fdd58e90604401610a8e565b836102d103610cb5577ff2b78321daf989e73321bb72cbe2a5fab2d75ae52e3240a42772118067c318108201610bbc576040517f70a0823100000000000000000000000000000000000000000000000000000000815273ffffffffffffffffffffffffffffffffffffffff86811660048301528416906370a0823190602401610a8e565b6040517f6352211e0000000000000000000000000000000000000000000000000000000081526004810183905273ffffffffffffffffffffffffffffffffffffffff841690636352211e90602401602060405180830381865afa925050508015610c61575060408051601f3d9081017fffffffffffffffffffffffffffffffffffffffffffffffffffffffffffffffe0168201909252610c5e91810190611d78565b60015b610c6d57506000610d60565b8573ffffffffffffffffffffffffffffffffffffffff168173ffffffffffffffffffffffffffffffffffffffff1614610ca7576000610caa565b60015b60ff16915050610d60565b83610cd8575073ffffffffffffffffffffffffffffffffffffffff841631610d60565b6040517f08c379a000000000000000000000000000000000000000000000000000000000815260206004820152602160248201527f556e6976657273616c546f6b656e526f757465723a20494e56414c49445f454960448201527f50000000000000000000000000000000000000000000000000000000000000006064820152608401610151565b949350505050565b83601403610da9573073ffffffffffffffffffffffffffffffffffffffff871603610d9d57610d9883868361122e565b610f7d565b610d98838787846113bd565b8361048303610e5d576040517ff242432a00000000000000000000000000000000000000000000000000000000815273ffffffffffffffffffffffffffffffffffffffff87811660048301528681166024830152604482018490526064820183905260a06084830152600060a483015284169063f242432a9060c4015b600060405180830381600087803b158015610e4057600080fd5b505af1158015610e54573d6000803e3d6000fd5b50505050610f7d565b836102d103610ec9576040517f42842e0e00000000000000000000000000000000000000000000000000000000815273ffffffffffffffffffffffffffffffffffffffff87811660048301528681166024830152604482018490528416906342842e0e90606401610e26565b83610cd85773ffffffffffffffffffffffffffffffffffffffff86163014610f73576040517f08c379a000000000000000000000000000000000000000000000000000000000815260206004820152602860248201527f556e6976657273616c546f6b656e526f757465723a20494e56414c49445f455460448201527f485f53454e4445520000000000000000000000000000000000000000000000006064820152608401610151565b610d988582611124565b505050505050565b82601403610f9d57610f98828583611554565b61109a565b8261048303611035576040517fa22cb46500000000000000000000000000000000000000000000000000000000815273ffffffffffffffffffffffffffffffffffffffff8581166004830152821515602483015283169063a22cb465906044015b600060405180830381600087803b15801561101857600080fd5b505af115801561102c573d6000803e3d6000fd5b5050505061109a565b826102d103610cd8576040517fa22cb46500000000000000000000000000000000000000000000000000000000815273ffffffffffffffffffffffffffffffffffffffff8581166004830152821515602483015283169063a22cb46590604401610ffe565b50505050565b6060604051905082815260208101838101602086015b818310156110ce5780518352602092830192016110b6565b50835183518101845294507fffffffffffffffffffffffffffffffffffffffffffffffffffffffffffffffe0810191508401835b8183101561111a578051835260209283019201611102565b5050509392505050565b6040805160008082526020820190925273ffffffffffffffffffffffffffffffffffffffff841690839060405161115b9190611cc2565b60006040518083038185875af1925050503d8060008114611198576040519150601f19603f3d011682016040523d82523d6000602084013e61119d565b606091505b5050905080610a2f576040517f08c379a000000000000000000000000000000000000000000000000000000000815260206004820152603460248201527f5472616e7366657248656c7065723a3a736166655472616e736665724554483a60448201527f20455448207472616e73666572206661696c65640000000000000000000000006064820152608401610151565b6040805173ffffffffffffffffffffffffffffffffffffffff8481166024830152604480830185905283518084039091018152606490920183526020820180517bffffffffffffffffffffffffffffffffffffffffffffffffffffffff167fa9059cbb0000000000000000000000000000000000000000000000000000000017905291516000928392908716916112c59190611cc2565b6000604051808303816000865af19150503d8060008114611302576040519150601f19603f3d011682016040523d82523d6000602084013e611307565b606091505b50915091508180156113315750805115806113315750808060200190518101906113319190611d95565b6107f1576040517f08c379a000000000000000000000000000000000000000000000000000000000815260206004820152602d60248201527f5472616e7366657248656c7065723a3a736166655472616e736665723a20747260448201527f616e73666572206661696c6564000000000000000000000000000000000000006064820152608401610151565b6040805173ffffffffffffffffffffffffffffffffffffffff85811660248301528481166044830152606480830185905283518084039091018152608490920183526020820180517bffffffffffffffffffffffffffffffffffffffffffffffffffffffff167f23b872dd00000000000000000000000000000000000000000000000000000000179052915160009283929088169161145c9190611cc2565b6000604051808303816000865af19150503d8060008114611499576040519150601f19603f3d011682016040523d82523d6000602084013e61149e565b606091505b50915091508180156114c85750805115806114c85750808060200190518101906114c89190611d95565b610f7d576040517f08c379a000000000000000000000000000000000000000000000000000000000815260206004820152603160248201527f5472616e7366657248656c7065723a3a7472616e7366657246726f6d3a20747260448201527f616e7366657246726f6d206661696c65640000000000000000000000000000006064820152608401610151565b6040805173ffffffffffffffffffffffffffffffffffffffff8481166024830152604480830185905283518084039091018152606490920183526020820180517bffffffffffffffffffffffffffffffffffffffffffffffffffffffff167f095ea7b30000000000000000000000000000000000000000000000000000000017905291516000928392908716916115eb9190611cc2565b6000604051808303816000865af19150503d8060008114611628576040519150601f19603f3d011682016040523d82523d6000602084013e61162d565b606091505b50915091508180156116575750805115806116575750808060200190518101906116579190611d95565b6107f1576040517f08c379a000000000000000000000000000000000000000000000000000000000815260206004820152602b60248201527f5472616e7366657248656c7065723a3a73616665417070726f76653a2061707060448201527f726f7665206661696c65640000000000000000000000000000000000000000006064820152608401610151565b7f4e487b7100000000000000000000000000000000000000000000000000000000600052604160045260246000fd5b6040516080810167ffffffffffffffff81118282101715611735576117356116e3565b60405290565b60405160e0810167ffffffffffffffff81118282101715611735576117356116e3565b60405160a0810167ffffffffffffffff81118282101715611735576117356116e3565b604051601f82017fffffffffffffffffffffffffffffffffffffffffffffffffffffffffffffffe016810167ffffffffffffffff811182821017156117c8576117c86116e3565b604052919050565b600067ffffffffffffffff8211156117ea576117ea6116e3565b5060051b60200190565b73ffffffffffffffffffffffffffffffffffffffff8116811461181657600080fd5b50565b8035611824816117f4565b919050565b600082601f83011261183a57600080fd5b813567ffffffffffffffff811115611854576118546116e3565b61188560207fffffffffffffffffffffffffffffffffffffffffffffffffffffffffffffffe0601f84011601611781565b81815284602083860101111561189a57600080fd5b816020850160208301376000918101602001919091529392505050565b600082601f8301126118c857600080fd5b6118da6118d583356117d0565b611781565b82358082526020808301929160051b850101858111156118f957600080fd5b602085015b81811015611aa25767ffffffffffffffff808235111561191d57600080fd5b8135870160807fffffffffffffffffffffffffffffffffffffffffffffffffffffffffffffffe0828b0301121561195357600080fd5b61195b611712565b826020830135111561196c57600080fd5b602082013582018a603f82011261198257600080fd5b60208101356119936118d5826117d0565b81815260e090910282016040019060208101908d8311156119b357600080fd5b6040840193505b82841015611a495760e0848f0312156119d257600080fd5b6119da61173b565b843581526119eb60208601356117f4565b6020850135602082015260408501356040820152611a0c60608601356117f4565b606085013560608201526080850135608082015260a085013560a082015260c085013560c08201528083525060208201915060e0840193506119ba565b845250505060408201356020820152611a6460608301611819565b60408201528260808301351115611a7a57600080fd5b611a8d8a60206080850135850101611829565b606082015286525050602093840193016118fe565b509095945050505050565b6000806040808486031215611ac157600080fd5b833567ffffffffffffffff80821115611ad957600080fd5b818601915086601f830112611aed57600080fd5b81356020611afd6118d5836117d0565b82815260a0928302850182019282820191908b851115611b1c57600080fd5b958301955b84871015611b8a5780878d031215611b395760008081fd5b611b4161175e565b8735611b4c816117f4565b8152878501358582015288880135611b63816117f4565b818a0152606088810135908201526080808901359082015283529586019591830191611b21565b5097505087013593505080831115611ba157600080fd5b5050611baf858286016118b7565b9150509250929050565b60008060008060008060c08789031215611bd257600080fd5b8635611bdd816117f4565b95506020870135611bed816117f4565b9450604087013593506060870135611c04816117f4565b9598949750929560808101359460a0909101359350915050565b60008060208385031215611c3157600080fd5b823567ffffffffffffffff80821115611c4957600080fd5b818501915085601f830112611c5d57600080fd5b813581811115611c6c57600080fd5b86602060c083028501011115611c8157600080fd5b60209290920196919550909350505050565b7f4e487b7100000000000000000000000000000000000000000000000000000000600052603260045260246000fd5b6000825160005b81811015611ce35760208186018101518583015201611cc9565b81811115611cf2576000828501525b509190910192915050565b600082821015611d36577f4e487b7100000000000000000000000000000000000000000000000000000000600052601160045260246000fd5b500390565b600060208284031215611d4d57600080fd5b8135611d58816117f4565b9392505050565b600060208284031215611d7157600080fd5b5051919050565b600060208284031215611d8a57600080fd5b8151611d58816117f4565b600060208284031215611da757600080fd5b81518015158114611d5857600080fdfea26469706673582212209fa54ff73f94e31664bd1280c84f5b7b17c4d70c24d6a1f3dfc53d15906b687c64736f6c634300080d0033",
  "linkReferences": {},
  "deployedLinkReferences": {}
}